:020000040800F2
:1000000000280020011E0008511E0008511E000893
:10001000511E0008511E0008511E0008000000007B
:10002000000000000000000000000000511E000859
:10003000511E000800000000511E0008511E00085B
:10004000511E0008511E0008511E0008511E0008D4
:10005000511E0008511E000871010008950100089A
:10006000B9010008DD01000801020008511E000866
:10007000511E0008511E0008511E0008511E0008A4
:10008000511E0008511E0008511E0008511E000894
:10009000511E0008511E0008511E000825020008CC
:1000A000391C0008F11B00085D1C0008151C000825
:1000B0004118000821190008F1190008511E000814
:1000C000511E0008511E0008511E0008551B000853
:1000D000511E0008811C0008951C0008A91C00087E
:1000E000CD020008511E000800000000511E00084B
:1000F000511E0008511E0008511E0008511E000824
:10010000511E0008511E0008511E0008511E000813
:10011000511E0008511E0008511E0008511E000803
:10012000511E0008511E0008511E0008511E0008F3
:1001300010B5054C237833B9044B13B10448AFF321
:1001400000800123237010BD00000020000000008B
:100150009C1E000808B5034B1BB103490348AFF3CD
:10016000008008BD00000000040000209C1E000864
:1001700080B500AF054B1B689847054B5B69044A87
:1001800043F00103536100BF80BD00BF1C0000208D
:100190000004014080B500AF054B5B689847054BF4
:1001A0005B69044A43F00203536100BF80BD00BF96
:1001B0001C0000200004014080B500AF054B9B6887
:1001C0009847054B5B69044A43F00403536100BF41
:1001D00080BD00BF1C0000200004014080B500AFBE
:1001E000054BDB689847054B5B69044A43F00803FD
:1001F000536100BF80BD00BF1C000020000401400F
:1002000080B500AF054B1B699847054B5B69044AF5
:1002100043F01003536100BF80BD00BF1C000020ED
:100220000004014080B500AF264B5B6903F020035A
:10023000002B08D0234B5B69224A43F02003536113
:10024000214B5B6998471F4B5B6903F04003002B10
:1002500008D01C4B5B691B4A43F0400353611A4BA7
:100260009B699847174B5B6903F08003002B08D00C
:10027000144B5B69134A43F080035361124BDB69F3
:100280009847104B5B6903F48073002B08D00D4B2B
:100290005B690C4A43F4807353610B4B1B6A9847AC
:1002A000084B5B6903F40073002B08D0054B5B69B6
:1002B000044A43F400735361034B5B6A984700BFE1
:1002C00080BD00BF000401401C00002080B500AFCD
:1002D0002D4B5B6903F48063002B08D02A4B5B69CC
:1002E000294A43F480635361284B9B6A9847264B05
:1002F0005B6903F40063002B08D0234B5B69224A3F
:1003000043F400635361214BDB6A98471E4B5B69E2
:1003100003F48053002B08D01B4B5B691A4A43F44B
:1003200080535361194B1B6B9847174B5B6903F460
:100330000053002B08D0144B5B69134A43F400535D
:100340005361124B5B6B98470F4B5B6903F480431F
:10035000002B08D00C4B5B690B4A43F4804353617C
:100360000A4B9B6B9847084B5B6903F40043002BD7
:1003700008D0054B5B69044A43F400435361034BC7
:10038000DB6B984700BF80BD000401401C000020CB
:1003900080B485B000AF0346FB80FB88072B03D8F1
:1003A000FB889B009BB204E0FB88083B9BB29B0050
:1003B0009BB2FB81FB8918461437BD4680BC704751
:1003C00090B585B000AF786039607B686B4A934226
:1003D00006D16B4B9B696A4A43F0040393612AE0A0
:1003E0007B68684A934206D1654B9B69644A43F037
:1003F000080393611FE07B68634A934206D1604B18
:100400009B695F4A43F01003936114E07B685F4A85
:10041000934206D15A4B9B69594A43F0200393619A
:1004200009E07B685A4A934205D1554B9B69544A6F
:1004300043F0400393613B681B889BB2072B01D8B4
:100440007B6801E07B680433FB603B681B889BB2E0
:100450001846FFF79DFF03461A460F239340DA43E1
:10046000FB681B681A40FB681A603B689B78DBB22C
:10047000002B0ED03B689B78DBB2012B09D03B6888
:100480009B78DBB2022B04D03B689B78DBB2032B5A
:1004900056D13B689B78DBB2032B1CD13B681B8891
:1004A0009BB21846FFF774FF03461A46082303FA67
:1004B00002F2FB681B681A43FB681A603B681B88E2
:1004C0009BB21A4601239340DA437B68DB681A40EB
:1004D0007B68DA604DE03B689B78DBB2022B1CD175
:1004E0003B681B889BB21846FFF752FF03461A462B
:1004F000082303FA02F2FB681B681A43FB681A60C0
:100500003B681B889BB21A46012303FA02F27B6800
:10051000DB681A437B68DA602BE03B689B78DBB2D0
:100520009C003B681B889BB21846FFF731FF0346CF
:1005300004FA03F2FB681B681A43FB681A6018E0B0
:100540003B689B78DBB2043B9B003A68D278D2B21E
:1005500043EA02043B681B889BB21846FFF718FF6A
:10056000034604FA03F2FB681B681A43FB681A602F
:1005700000BF00BF1437BD4690BD00BF000801405A
:1005800000100240000C0140001001400014014026
:100590000018014080B483B000AF78600B467B80C8
:1005A00013467B707B78DBB2012B0BD17B889BB22F
:1005B0001A46012303FA02F27B68DB681A437B6860
:1005C000DA600AE07B889BB21A4601239340DA4343
:1005D0007B68DB681A407B68DA6000BF0C37BD4679
:1005E00080BC704780B400AFFEE7000080B59CB0CF
:1005F00000AF78600B46FB701346BB707B68B3F1AD
:10060000804F40F08980FB78022B43D0022B00F30F
:10061000BB81002B00F0BA81012B00D0B4E1BB7884
:10062000013B032B32D801A252F823F03D0600080B
:10063000510600086506000879060008B04B1B68E3
:10064000FB6607F16C031946AE48FFF7B9FE20E0E0
:10065000AD4B1B68FB6607F16C031946A948FFF711
:10066000AFFE16E0A94B1B68FB6607F16C03194649
:10067000A448FFF7A5FE0CE0A54B1B68FB6607F13D
:100680006C0319469F48FFF79BFE02E001F0ADFAAC
:1006900085E184E1BB78013B032B39D801A252F8F4
:1006A00023F000BFB5060008D5060008E9060008DB
:1006B000FD0600080023A7F86C30012387F86E3090
:1006C000002387F86F3007F16C0319468D48FFF758
:1006D00077FE20E08F4B1B68FB6607F16C03194621
:1006E0008848FFF76DFE16E08B4B1B68FB6607F131
:1006F0006C0319468348FFF763FE0CE0874B1B68C9
:10070000FB6607F16C0319467E48FFF759FE02E0CD
:1007100001F06BFA43E142E17B68814A934240F089
:100720008980FB78022B43D0022B00F33181002B10
:1007300000F03081012B00D02AE1BB78013B032B74
:1007400032D801A252F823F0590700086D070008BB
:100750008107000895070008724B1B68FB6607F1CC
:100760006C0319466748FFF72BFE20E06E4B1B68B1
:10077000FB6607F16C0319466248FFF721FE16E09D
:100780005F4B1B68FB6607F16C0319466748FFF770
:1007900017FE0CE05C4B1B68FB6607F16C03194607
:1007A0006248FFF70DFE02E001F01FFAF7E0F6E005
:1007B000BB78013B032B39D801A252F823F000BFCC
:1007C000D1070008E5070008F90700081908000824
:1007D000574B1B68FB6607F16C0319464948FFF746
:1007E000EFFD26E0534B1B68FB6607F16C031946CF
:1007F0004448FFF7E5FD1CE00023A7F86C30012317
:1008000087F86E30002387F86F3007F16C031946C4
:100810004648FFF7D5FD0CE03E4B1B68FB6607F131
:100820006C0319464148FFF7CBFD02E001F0DDF90A
:10083000B5E0B4E07B68404A934240F0B080FB787A
:10084000022B43D0022B00F3A780002B00F0A680E0
:10085000012B00D0A0E0BB78013B032B32D801A2D2
:1008600052F823F075080008890800089D08000860
:10087000B10800082B4B1B68FB6607F16C03194697
:100880002A48FFF79DFD20E0274B1B68FB6607F118
:100890006C0319462548FFF793FD16E0274B1B68AC
:1008A000FB6607F16C0319462048FFF789FD0CE051
:1008B000234B1B68FB6607F16C0319461B48FFF7C7
:1008C0007FFD02E001F091F969E068E0BB78013B4F
:1008D000032B55D801A252F823F000BFED08000801
:1008E00045090008590900086D090008104B1B68EC
:1008F000FB6607F16C0319460C48FFF761FD42E007
:10090000B41E000800080140B81E0008BC1E000804
:10091000C01E0008C41E0008C81E0008CC1E000827
:1009200000040040D01E0008D41E0008000C014046
:10093000D81E0008DC1E000800080040E01E000869
:10094000E41E0008184B1B68FB6607F16C03194690
:100950001648FFF735FD16E0154B1B68FB6607F1DF
:100960006C0319461148FFF72BFD0CE0114B1B6877
:10097000FB6607F16C0319460C48FFF721FD02E006
:1009800001F033F90BE00AE000BF08E000BF06E029
:1009900000BF04E000BF02E000BF00E000BF00BFF6
:1009A0007037BD4680BD00BFDC1E0008000C014052
:1009B000E81E0008EC1E000890B585B000AFF86096
:1009C000B9607A60BB685B7A002B40F0C080634AF4
:1009D000FB681360FB68B3F1804F0CD1604BDB699F
:1009E0005F4A43F00103D3615E4ABB6814460FCBF4
:1009F00084E80F0024E0FB685B4A93420ED1584B19
:100A0000DB69574A43F00203D361564BBA6803F1DE
:100A1000100413460FCB84E80F0011E0FB68534A23
:100A200093420DD14E4BDB694D4A43F00403D36131
:100A30004C4BBA6803F1200413460FCB84E80F0037
:100A4000F86800F097FEBB681B881A46FB689A623C
:100A5000BB685B881A46FB68DA62BB689B881A46EB
:100A6000FB681A63BB689B88002B04D0FA68136884
:100A700043F0800313607B681B78022B1CD0022B91
:100A800020DC002B02D0012B0BD01BE0FA6813688E
:100A90006FF346131360FA6813686FF3041313605F
:100AA00013E0FA6813686FF346131360FA6813686B
:100AB00043F01003136008E0FA68136843F0600322
:100AC000136002E0FFF78EFD00BF00220021F868EE
:100AD000FFF78CFDFA68136843F001031360BB68ED
:100AE0001B7A002B25D1FA68D36843F00103D36049
:100AF000FB68B3F1804F06D11D4B1B681C4A43F0C5
:100B00008053136025E0FB68174A934206D1184BC7
:100B10001B68174A43F0005313601AE0FB68134A3E
:100B2000934216D1124B1B68114A43F08043136065
:100B30000FE000BFFB681B69C3F30003DBB2002BAF
:100B4000F8D0FA6813696FF30003136101E0FFF74F
:100B500049FD00BF1437BD4690BD00BF880000208E
:100B6000001002405800002000040040000800402F
:100B700000E100E090B585B000AFF860B9607A6040
:100B8000BB685B7A012B04D0BB685B7A012B40F019
:100B9000E2859E4AFB681360FB68B3F1804F0CD17D
:100BA0009B4BDB699A4A43F00103D361994ABB68C6
:100BB00014460FCB84E80F0024E0FB68964A93426A
:100BC0000ED1934BDB69924A43F00203D361914B00
:100BD000BA6803F1100413460FCB84E80F0011E04C
:100BE000FB688E4A93420DD1894BDB69884A43F0FA
:100BF0000403D361874BBA6803F1200413460FCB7B
:100C000084E80F00F86800F0B5FDBB681B881A4641
:100C1000FB689A62BB685B881A46FB68DA62BB684D
:100C20009B881A46FB681A63BB689B88002B04D01C
:100C3000FA68136843F0800313607B685B78072BC6
:100C400000F2D88401A252F823F000BF6D0C000816
:100C5000EF0C0008CF0E000899100008F5150008E9
:100C6000F515000865120008311400087B681B7830
:100C7000013B032B36D801A252F823F08D0C00085B
:100C8000A30C0008B90C0008CF0C0008FA6893699F
:100C90006FF30613936101220121F868FFF7A6FCA8
:100CA00023E0FA6893696FF30E3393610222012106
:100CB000F868FFF79BFC18E0FA68D3696FF3061336
:100CC000D36103220121F868FFF790FC0DE0FA6878
:100CD000D3696FF30E33D36104220121F868FFF763
:100CE00085FC02E0FFF77EFC00BF00F086BC7B685D
:100CF0001B78013B032B00F2E68001A252F823F09F
:100D0000110D0008790D0008E10D00085F0E0008C4
:100D1000BB68DB881A46FB685A63FA68936901214D
:100D200061F306139361BB689B88002B05D0FA68BA
:100D3000936943F00803936104E0FA6893696FF3E1
:100D4000C30393617B689B7803F00103D9B2FA680F
:100D5000136A61F341031362FA6893696FF3010345
:100D60009361FA68136A43F00103136201220121BF
:100D7000F868FFF73BFCA9E0BB68DB881A46FB6814
:100D80009A63FA689369012161F30E339361BB683A
:100D90009B88002B05D0FA68936943F40063936144
:100DA00004E0FA6893696FF3CB2393617B689B78C7
:100DB00003F00103D9B2FA68136A61F345131362B1
:100DC000FA6893696FF309239361FA68136A43F031
:100DD0001003136202220121F868FFF707FC75E097
:100DE000BB68DB881A46FB68DA63FA68D3690121BD
:100DF00061F30613D361BB689B88002B10D0FA689F
:100E0000D36943F00803D3610FE000BF88000020DE
:100E1000001002405800002000040040000800407C
:100E2000FA68D3696FF3C303D3617B689B7803F0DF
:100E30000103D9B2FA68136A61F349231362FA68AD
:100E4000D3696FF30103D361FA68136A43F48073C3
:100E5000136203220121F868FFF7C8FB36E0BB6884
:100E6000DB881A46FB681A64FA68D369012161F3CA
:100E70000E33D361BB689B88002B05D0FA68D36919
:100E800043F40063D36104E0FA68D3696FF3CB23C2
:100E9000D3617B689B7803F00103D9B2FA68136AC7
:100EA00061F34D331362FA68D3696FF30923D36199
:100EB000FA68136A43F48053136204220121F8682C
:100EC000FFF794FB02E0FFF78DFB00BF95E37B6823
:100ED0001B78013B032B00F2DB8001A252F823F0C8
:100EE000F10E0008590F0008C10F00082910000872
:100EF000BB68DB881A46FB685A63FA68936902216B
:100F000061F306139361BB689B88002B05D0FA68D8
:100F1000936943F00803936104E0FA6893696FF3FF
:100F2000C30393617B689B7803F00103D9B2FA682D
:100F3000136A61F341031362FA6893696FF3010363
:100F40009361FA68136A43F00103136201220121DD
:100F5000F868FFF74BFB9EE0BB68DB881A46FB682E
:100F60009A63FA689369022161F30E339361BB6857
:100F70009B88002B05D0FA68936943F40063936162
:100F800004E0FA6893696FF3CB2393617B689B78E5
:100F900003F00103D9B2FA68136A61F345131362CF
:100FA000FA6893696FF309239361FA68136A43F04F
:100FB0001003136202220121F868FFF717FB6AE0B1
:100FC000BB68DB881A46FB68DA63FA68D3690221DA
:100FD00061F30613D361BB689B88002B05D0FA68C8
:100FE000D36943F00803D36104E0FA68D3696FF36F
:100FF000C303D3617B689B7803F00103D9B2FA681D
:10100000136A61F349231362FA68D3696FF301032A
:10101000D361FA68136A43F48073136203220121D7
:10102000F868FFF7E3FA36E0BB68DB881A46FB682E
:101030001A64FA68D369022161F30E33D361BB6885
:101040009B88002B05D0FA68D36943F40063D36111
:1010500004E0FA68D3696FF3CB23D3617B689B7894
:1010600003F00103D9B2FA68136A61F34D331362D6
:10107000FA68D3696FF30923D361FA68136A43F4FA
:101080008053136204220121F868FFF7AFFA02E0EF
:10109000FFF7A8FA00BFB0E27B681B78013B032B87
:1010A00000F2DC8001A252F823F000BFBD1000085E
:1010B000251100088D110008F5110008BB68DB88B8
:1010C0001A46FB685A63FA689369032161F30613B1
:1010D0009361BB689B88002B05D0FA68936943F045
:1010E0000803936104E0FA6893696FF3C3039361A3
:1010F0007B689B7803F00103D9B2FA68136A61F345
:1011000041031362FA6893696FF301039361FA680C
:10111000136A43F00103136201220121F868FFF70B
:1011200065FA9EE0BB68DB881A46FB689A63FA683A
:101130009369032161F30E339361BB689B88002B95
:1011400005D0FA68936943F40063936104E0FA6898
:1011500093696FF3CB2393617B689B7803F0010362
:10116000D9B2FA68136A61F345131362FA68936996
:101170006FF309239361FA68136A43F01003136253
:1011800002220121F868FFF731FA6AE0BB68DB88C8
:101190001A46FB68DA63FA68D369032161F3061320
:1011A000D361BB689B88002B05D0FA68D36943F0F4
:1011B0000803D36104E0FA68D3696FF3C303D36112
:1011C0007B689B7803F00103D9B2FA68136A61F374
:1011D00049231362FA68D3696FF30103D361FA6894
:1011E000136A43F48073136203220121F868FFF746
:1011F000FDF936E0BB68DB881A46FB681A64FA68BA
:10120000D369032161F30E33D361BB689B88002B44
:1012100005D0FA68D36943F40063D36104E0FA6847
:10122000D3696FF3CB23D3617B689B7803F0010311
:10123000D9B2FA68136A61F34D331362FA68D3695D
:101240006FF30923D361FA68136A43F4805313627E
:1012500004220121F868FFF7C9F902E0FFF7C2F99B
:1012600000BFCAE17B681B78013B032B00F2DC80E6
:1012700001A252F823F000BF89120008F112000801
:1012800059130008C1130008BB68DB881A46FB68C5
:101290005A63FA689369062161F306139361BB6888
:1012A0009B88002B05D0FA68936943F0080393618B
:1012B00004E0FA6893696FF3C30393617B689B78DA
:1012C00003F00103D9B2FA68136A61F341031362B0
:1012D000FA6893696FF301039361FA68136A43F044
:1012E0000103136201220121F868FFF77FF99EE0F4
:1012F000BB68DB881A46FB689A63FA689369062123
:1013000061F30E339361BB689B88002B05D0FA68AC
:10131000936943F40063936104E0FA6893696FF39F
:10132000CB2393617B689B7803F00103D9B2FA6801
:10133000136A61F345131362FA6893696FF3092323
:101340009361FA68136A43F01003136202220121C9
:10135000F868FFF74BF96AE0BB68DB881A46FB6860
:10136000DA63FA68D369062161F30613D361BB68B7
:101370009B88002B05D0FA68D36943F00803D3613A
:1013800004E0FA68D3696FF3C303D3617B689B7889
:1013900003F00103D9B2FA68136A61F349231362B7
:1013A000FA68D3696FF30103D361FA68136A43F4EF
:1013B0008073136203220121F868FFF717F936E002
:1013C000BB68DB881A46FB681A64FA68D369062191
:1013D00061F30E33D361BB689B88002B05D0FA689C
:1013E000D36943F40063D36104E0FA68D3696FF30F
:1013F000CB23D3617B689B7803F00103D9B2FA68F1
:10140000136A61F34D331362FA68D3696FF30923EA
:10141000D361FA68136A43F48053136204220121F2
:10142000F868FFF7E3F802E0FFF7DCF800BFE4E05C
:101430007B681B78013B032B00F2D88001A252F895
:1014400023F000BF55140008BB1400082115000844
:1014500087150008BB68DB881A46FB685A63FA6880
:10146000936943F070039361BB689B88002B05D0A0
:10147000FA68936943F00803936104E0FA6893699A
:101480006FF3C30393617B689B7803F00103D9B2C8
:10149000FA68136A61F341031362FA6893696FF3A0
:1014A00001039361FA68136A43F001031362012296
:1014B0000121F868FFF79AF89BE0BB68DB881A46C1
:1014C000FB689A63FA68936943F4E0439361BB68ED
:1014D0009B88002B05D0FA68936943F400639361FD
:1014E00004E0FA6893696FF3CB2393617B689B7880
:1014F00003F00103D9B2FA68136A61F3451313626A
:10150000FA6893696FF309239361FA68136A43F0E9
:101510001003136202220121F868FFF767F868E000
:10152000BB68DB881A46FB68DA63FA68D36943F064
:101530007003D361BB689B88002B05D0FA68D36920
:1015400043F00803D36104E0FA68D3696FF3C3037F
:10155000D3617B689B7803F00103D9B2FA68136A00
:1015600061F349231362FA68D3696FF30103D3610E
:10157000FA68136A43F48073136203220121F86846
:10158000FFF734F835E0BB68DB881A46FB681A645D
:10159000FA68D36943F4E043D361BB689B88002BAE
:1015A00005D0FA68D36943F40063D36104E0FA68B4
:1015B000D3696FF3CB23D3617B689B7803F001037E
:1015C000D9B2FA68136A61F34D331362FA68D369CA
:1015D0006FF30923D361FA68136A43F480531362EB
:1015E00004220121F868FFF701F802E0FEF7FAFF94
:1015F00000BF02E0FEF7F6FF00BFFA68136843F091
:1016000001031360BB681B7A002B4BD17B681B78EE
:10161000013B032B22D801A252F823F02D1600081B
:10162000391600084516000851160008FA68D368F4
:1016300043F00203D36014E0FA68D36843F0040374
:10164000D3600EE0FA68D36843F00803D36008E083
:10165000FA68D36843F01003D36002E0FEF7C2FFDC
:1016600000BFFB68B3F1804F06D13F4B1B683E4A79
:1016700043F08053136071E0FB683C4A934206D10B
:10168000394B1B68384A43F00053136066E0FB682F
:10169000374A934262D1344B1B68334A43F080434C
:1016A00013605BE07B681B78013B032B4FD801A2E2
:1016B00052F823F0C5160008E116000817170008B5
:1016C0003317000800BFFB681B69C3F34003DBB29C
:1016D000002BF8D0FA6813696FF34103136139E006
:1016E00000BFFB681B69C3F30003DBB2002BF8D01B
:1016F00000BFFB681B69C3F38003DBB2002BF8D08B
:10170000FA6813696FF382031361FA6813696FF360
:10171000000313611EE000BFFB681B69C3F3C00335
:10172000DBB2002BF8D0FA6813696FF3C3031361BF
:1017300010E000BFFB681B69C3F30013DBB2002B92
:10174000F8D0FA6813696FF30413136102E0FEF72F
:1017500049FF00BF02E0FEF745FF00E000BF00BF09
:101760001437BD4690BD00BF00E100E0000400401A
:101770000008004080B483B000AF78607B6800222E
:101780001A607B680022DA627B6800221A627B683A
:1017900000229A617B680022DA617B6800225A632A
:1017A0007B6800229A637B680022DA637B680022F0
:1017B0001A647B6800225A627B6800225A607B6848
:1017C00000229A627B68B3F1804F0CD1194B1B69E0
:1017D000184A43F001031361164B1B69154A23F0A5
:1017E0000103136120E07B68134A93420CD1114B33
:1017F0001B69104A43F0020313610E4B1B690D4A2B
:1018000023F0020313610FE07B680C4A93420BD173
:10181000084B1B69074A43F004031361054B1B691E
:10182000044A23F00403136100BF0C37BD4680BC9B
:10183000704700BF00100240000400400008004054
:1018400080B582B000AF4FF080431B69C3F3000343
:10185000DBB2002B0BD07A68137843F001031370CE
:101860004FF0804213696FF3000313614EE04FF0B5
:1018700080431B69C3F34003DBB2002B0BD07A68B3
:10188000137843F0020313704FF0804213696FF333
:10189000410313613AE04FF080431B69C3F38003B7
:1018A000DBB2002B0BD07A68137843F0040313707B
:1018B0004FF0804213696FF38203136126E04FF00B
:1018C00080431B69C3F3C003DBB2002B0BD07A68E3
:1018D000137843F0080313704FF0804213696FF3DD
:1018E000C303136112E04FF080431B69C3F300137D
:1018F000DBB2002B0AD07A68137843F01003137020
:101900004FF0804213696FF304131361034BDB68DC
:101910007868984700BF0837BD4680BD5800002052
:1019200080B582B000AF304B1B69C3F30003DBB25C
:10193000002B0AD07A68137843F0010313702A4A07
:1019400013696FF30003136146E0274B1B69C3F370
:101950004003DBB2002B0AD07A68137843F002030D
:101960001370214A13696FF34103136134E01E4B76
:101970001B69C3F38003DBB2002B0AD07A681378AB
:1019800043F004031370184A13696FF38203136161
:1019900022E0154B1B69C3F3C003DBB2002B0AD056
:1019A0007A68137843F0080313700F4A13696FF3D2
:1019B000C303136110E00C4B1B69C3F30013DBB2CC
:1019C000002B09D07A68137843F010031370064A8D
:1019D00013696FF304131361044BDB69786898474C
:1019E00000BF0837BD4680BD0004004058000020FD
:1019F00080B582B000AF334B1B69C3F30003DBB289
:101A0000002B0AD07A68137843F0010313702D4A33
:101A100013696FF3000313614BE02A4B1B69C3F397
:101A20004003DBB2002B0AD07A68137843F002033C
:101A30001370244A13696FF34103136139E0214B9A
:101A40001B69C3F38003DBB2002B0FD07A681378D5
:101A500043F0040313701B4A13696FF3820313618D
:101A60007A68137843F00103137022E0154B1B6969
:101A7000C3F3C003DBB2002B0AD07A68137843F0BB
:101A8000080313700F4A13696FF3C303136110E067
:101A90000C4B1B69C3F30013DBB2002B09D07A682F
:101AA000137843F010031370064A13696FF304139D
:101AB0001361054BDB6A7868984700BF0837BD465D
:101AC00080BD00BF000800405800002080B588B0ED
:101AD00000AF78600B467B800823FB83FB8B012BD8
:101AE00002D0FB8B013BFB83FB8BBB817B88FB81A3
:101AF00000233B8200237B8201233B7500237B75FF
:101B00000023BB6100233B7207F1080207F10C03BD
:101B100019467868FEF750FF00BF2037BD4680BDEC
:101B200080B584B000AF78600B467B800023FB60FB
:101B300007E04FF47A717868FFF7C8FFFB6801335C
:101B4000FB607B88FA689A42F3D300BF00BF10376E
:101B5000BD4680BD80B582B000AF3B1D054918462B
:101B600000F00CF8044BDB683879984700BF083761
:101B7000BD4680BD003001408C00002080B483B0A1
:101B800000AF786039603B689B68C3F30003DBB249
:101B9000002B0FD07A6813786FF3000313707A6804
:101BA000137843F0020313703A6813796FF38613C6
:101BB000137115E03B689B68C3F34003DBB2002B55
:101BC0000ED07A68137843F0010313707A681378A3
:101BD0006FF3410313703A6813796FF3C7131371EE
:101BE00000BF0C37BD4680BC704780B400AFFEE735
:101BF00080B500AF054BDB689847054B1A68136941
:101C00006FF30003136100BF80BD00BFAC00002074
:101C1000BC00002080B500AF054BDB689847054B42
:101C20001A6813696FF34103136100BF80BD00BFE1
:101C3000AC000020BC00002080B500AF054BDB6885
:101C40009847054B1A6813696FF30003136100BFCF
:101C500080BD00BFAC000020BC00002080B500AFFC
:101C6000054BDB689847054B1A6813696FF300034F
:101C7000136100BF80BD00BFAC000020BC0000208D
:101C800080B500AF024BDB68984700BF80BD00BF46
:101C9000C000002080B500AF024BDB69984700BF51
:101CA00080BD00BFC000002080B500AF024BDB6AE2
:101CB000984700BF80BD00BFC000002080B58CB039
:101CC00000AF78600B46FB701346BB700023FB62CD
:101CD000BB782B2B13D02D2B22D1FB78C3F15A03C9
:101CE0004FF40B7202FB03F303F5C333A033284A0E
:101CF00082FB03125211DB17D31AFB6221E0FB783F
:101D00004FF40B7202FB03F303F5123303F5F87380
:101D10001F4A82FB03125211DB17D31AFB6210E039
:101D2000FB784FF40B7202FB03F303F5123303F558
:101D3000F873174A82FB03125211DB17D31AFB62A6
:101D400000BF0723BB8344F62063FB8300233B844F
:101D5000FB6A9BB27B84012387F82430012387F838
:101D600025300023BB620B4A07F1080312681146B5
:101D700019800233120C1A7007F1080207F11C03D4
:101D800019460548FEF7F6FE00BF3037BD4680BD58
:101D90001F85EB51F01E00080004004080B582B0A2
:101DA00000AF144B1B687B603B1D19461248FEF7C1
:101DB00007FB012200211048FEF7ECFB2B22372104
:101DC0000E48FFF77BFF4FF4FA714FF08040FFF7AA
:101DD000A7FE002200210848FEF7DCFB2D22562139
:101DE0000648FFF76BFF4FF4FA714FF08040FFF7A2
:101DF00097FEDEE7F41E00080008014000040040E2
:101E00000D488546AFF300800C480D490D4A00236C
:101E100002E0D458C4500433C4188C42F9D30A4A9F
:101E20000A4C002301E013600432A242FBD300F00D
:101E300011F8FFF7B3FFFEE70028002000000020A4
:101E400000000020001F000800000020F00000201B
:101E5000FEE7000070B500260C4D0D4C641BA4106D
:101E6000A64209D100F01AF800260A4D0A4C641B5C
:101E7000A410A64205D170BD55F8043B9847013621
:101E8000EEE755F8043B98470136F2E7F81E0008E4
:101E9000F81E0008F81E0008FC1E0008F8B500BF78
:101EA000F8BC08BC9E467047F8B500BFF8BC08BC3B
:041EB0009E46704793
:101EB40000000601010006010200060103000601FC
:101EC40001000100020001000300010006000601F8
:101ED40007000601060001000700010008000601D2
:101EE40009000601080001000900010002060100C2
:041EF40000000401E5
:041EF8005501000888
:041EFC0031010008A8
:0400000508001E01D0
:00000001FF
