:020000040800F2
:10000000005000202D3A00087D3A00087D3A000893
:100010007D3A00087D3A00087D3A000800000000A3
:10002000000000000000000000000000210E000899
:100030007D3A000800000000210F0008690F000849
:100040007D3A00087D3A00087D3A00087D3A0008B4
:100050007D3A00087D3A0008352100085921000842
:100060007D210008A1210008C52100087D3A000873
:100070007D3A00087D3A00087D3A00087D3A000884
:100080007D3A00087D3A0008ED1900087D3A000825
:100090009D1D0008B11D0008C51D0008E9210008CC
:1000A00001320008B931000825320008DD310008AE
:1000B000992C0008792D0008492E00087D3A000887
:1000C0007D3A00087D3A00087D3A0008E12F0008DB
:1000D0007D3A000801330008253300084933000841
:1000E000912200087D3A0008000000007D3A0008D7
:1000F0007D3A00087D3A00087D3A00087D3A000804
:100100007D3A00087D3A00087D3A00087D3A0008F3
:100110007D3A00087D3A00087D3A00087D3A0008E3
:100120007D3A00087D3A00087D3A00087D3A0008D3
:1001300010B5054C237833B9044B13B10448AFF321
:1001400000800123237010BD240000200000000067
:10015000903B000808B5034B1BB103490348AFF3BC
:10016000008008BD0000000028000020903B00082F
:1001700080B483B000AF78607B6803F108027B68CD
:100180005A607B684FF0FF329A607B6803F1080287
:100190007B68DA607B6803F108027B681A617B6820
:1001A00000221A6000BF0C37BD4680BC704780B487
:1001B00083B000AF78607B6800221A6100BF0C3703
:1001C000BD4680BC704780B485B000AF78603960B0
:1001D0007B685B68FB603B68FA685A60FB689A68FA
:1001E0003B689A60FB689B683A685A60FB683A68AB
:1001F0009A603B687A681A617B681B685A1C7B6846
:100200001A6000BF1437BD4680BC704780B485B00B
:1002100000AF78607B681B69FB607B685B687A680D
:1002200092689A607B689B687A6852685A60FB683B
:100230005B687A689A4203D17B689A68FB685A6067
:100240007B6800221A61FB681B685A1EFB681A60F3
:10025000FB681B6818461437BD4680BC704780B5E4
:100260008CB004AFF860B9603B601346FB80FB883C
:100270009B00184600F0B4FE78617B69002B13D018
:10028000542000F0ADFEF861FB69002B08D0542229
:100290000021F86903F050FCFB697A691A6305E0F4
:1002A000786900F0EFFE01E00023FB61FB69002BA1
:1002B00013D0FA8800230393FB690293FB6A01932E
:1002C000BB6A00933B68B968F86800F00EF8F869FB
:1002D00000F074F80123BB6102E04FF0FF33BB6113
:1002E000BB6918462037BD4680BD80B586B000AFDB
:1002F000F860B9607A603B60BB6A1A6B7B6803F197
:100300008043013B9B0013443B613B6923F007039F
:100310003B61BB68002B1ED000237B6112E0BA68F2
:100320007B6913441978BA6A7B69134434330A46EB
:100330001A70BA687B6913441B78002B06D07B695E
:1003400001337B617B690F2BE9D900E000BFBB6AF9
:10035000002283F843203B6A042B01D904233B622B
:10036000BB6A3A6ADA62BB6A3A6A5A64BB6A0433A5
:100370001846FFF71CFFBB6A18331846FFF717FF34
:10038000BB6ABA6A1A613B6AC3F10502BB6A9A6129
:10039000BB6ABA6A5A623A68F968386900F0FAFCCE
:1003A0000246BB6A1A607B6A002B02D07B6ABA6A7B
:1003B0001A6000BF1837BD4680BD000080B584B00C
:1003C00000AF786000F072FD3E4B1B6801333D4A80
:1003D00013603D4B1B68002B09D13B4A7B681360BF
:1003E000384B1B68012B10D100F03CFC0DE0374B63
:1003F0001B68002B09D1344B1B68DA6A7B68DB6A07
:100400009A4202D8304A7B681360314B1B68013333
:100410002F4A13607B68DB6A01229A402D4B1B68D0
:1004200013432C4A13607B68DA6A2B4913469B00FE
:1004300013449B000B4404331B68FB607B68FA6821
:100440009A60FB689A687B68DA60FB689B687A68E8
:1004500004325A607B681A1DFB689A607B68DA6A0E
:1004600013469B0013449B001B4A1A447B685A6145
:100470007B68DA6A184913469B0013449B000B44BF
:100480001B68591C144813469B0013449B000344EB
:10049000196000F025FD0D4B1B68002B0ED00A4B98
:1004A0001B68DA6A7B68DB6A9A4207D20B4B4FF013
:1004B00080521A60BFF34F8FBFF36F8F00BF1037AA
:1004C000BD4680BD1801002040000020240100200E
:1004D00034010020200100204400002004ED00E051
:1004E00080B584B000AF786000F0E0FC7B68002B42
:1004F00002D13B4B1B6800E07B68BB60BB680433E8
:100500001846FFF783FE0346002B15D1BB68DA6A55
:10051000344913469B0013449B000B441B68002B7B
:100520000AD1BB68DB6A012202FA03F3DA432E4BDD
:100530001B6813402C4A1360BB689B6A002B04D0D5
:10054000BB6818331846FFF761FEBB6804331946D1
:100550002648FFF738FE0023FB6010E0BA68FB680E
:10056000134450331B78DBB2012B05D1BA68FB680A
:100570001344503300221A70FB680133FB60FB68A0
:10058000002BEBDD00F0ACFC194B1B68002B05D0F9
:1005900000F08CFC00F0E4FB00F0A2FC104B1B68A8
:1005A000BA689A4218D1124B1B68002B08D0114B25
:1005B0004FF080521A60BFF34F8FBFF36F8F0BE085
:1005C0000A4B1A680C4B1B689A4203D1044B002259
:1005D0001A6001E000F0E8FA00BF1037BD4680BDA8
:1005E00040000020440000202001002004010020E1
:1005F0002401002004ED00E01801002080B485B043
:1006000000AF78600023FB607B68BB60BB685B6900
:10061000094A93420AD1BB689B6A084A934205D0B3
:10062000BB689B6A002B01D10123FB60FB68184665
:100630001437BD4680BC704704010020D80000205C
:1006400080B584B000AF78607B68FB60344B1B687A
:10065000FA689A425FD0FB68002B5CD000F026FC61
:10066000F868FFF7CBFF0346002B52D0FB6804333A
:100670001846FFF7CBFDFB68DB6A01229A40294B45
:100680001B681343274A1360FB68DA6A264913463E
:100690009B0013449B000B4404331B68BB60FB6846
:1006A000BA689A60BB689A68FB68DA60BB689B6846
:1006B000FA6804325A60FB681A1DBB689A60FB68CE
:1006C000DA6A13469B0013449B00174A1A44FB68DE
:1006D0005A61FB68DA6A144913469B0013449B0075
:1006E0000B441B68591C104813469B0013449B0085
:1006F00003441960FB68DA6A094B1B68DB6A9A429B
:1007000007D30A4B4FF080521A60BFF34F8FBFF3ED
:100710006F8F00F0E5FB00BF1037BD4680BD00BF06
:1007200040000020200100204400002004ED00E0F3
:1007300080B584B002AF154B0193002300930023D2
:100740004FF4807212491348FFF789FD78607B6887
:10075000012B15D14FF0BF0383F31188BFF36F8FC7
:10076000BFF34F8F3B6000BF0B4B4FF0FF321A605F
:100770000A4B01221A600A4B00221A6000F076FB35
:10078000084B1B6800BF0837BD4680BD3C010020F8
:10079000A83B0008350C0008380100202401002087
:1007A0001C0100200000002080B400AF044B1B6837
:1007B0000133034A136000BFBD4680BC704700BFD1
:1007C0004001002080B586B000AF00237B6100238C
:1007D0003B6100F06BFB684B1B68013B664A136092
:1007E000654B1B68002B40F0C080644B1B68002BDE
:1007F00000F0BB808AE0624BDB68DB687B617B6971
:100800009B6ABB607B69DB697A69126A9A607B6963
:100810001B6A7A69D2695A60BB685A687B69183367
:100820009A4203D17B691A6ABB685A607B690022CD
:100830009A62BB681B685A1EBB681A607B695B6959
:100840007B607B699B687A69D2689A607B69DB68A8
:100850007A6992685A607B685A687B6904339A4265
:1008600003D17B69DA687B685A607B6900225A6130
:100870007B681B685A1E7B681A607B69DB6A0122F1
:100880009A40404B1B6813433E4A13607B69DA6A07
:100890003D4913469B0013449B000B4404331B68E3
:1008A0003B607B693A689A603B689A687B69DA606A
:1008B0003B689B687A6904325A607B691A1D3B6801
:1008C0009A607B69DA6A13469B0013449B002E4AA8
:1008D0001A447B695A617B69DA6A2B4913469B008B
:1008E00013449B000B441B68591C274813469B006C
:1008F00013449B00034419607B69DA6A234B1B682D
:10090000DB6A9A4202D3224B01221A601C4B1B68FD
:10091000002B7FF470AF7B69002B01D000F020FA30
:100920001C4B1B68FB60FB68002B10D000F036F8F6
:100930000346002B02D0164B01221A60FB68013BD4
:10094000FB60FB68002BF1D1124B00221A60104BA8
:100950001B68002B09D001233B610F4B4FF08052E5
:100960001A60BFF34F8FBFF36F8F00F0B9FA3B6986
:1009700018461837BD4680BD4001002018010020F0
:10098000D80000202001002044000020400000206A
:100990002C0100202801002004ED00E080B588B083
:1009A00000AF0023FB61754B1B68002B40F0DC801F
:1009B000734B1B680133BB61714ABB691360BB6930
:1009C000002B10D16F4B1B687B616F4B1B686D4A0E
:1009D00013606D4A7B6913606C4B1B6801336B4A73
:1009E000136000F0BDF96A4B1B68BA699A42C0F007
:1009F000A680644B1B681B68002B04D1644B4FF02E
:100A0000FF321A609BE05F4B1B68DB68DB683B6171
:100A10003B695B68FB60BA69FB689A4203D25C4A37
:100A2000FB6813608BE03B695B69BB603B699B685B
:100A30003A69D2689A603B69DB683A6992685A60A1
:100A4000BB685A683B6904339A4203D13B69DA6850
:100A5000BB685A603B6900225A61BB681B685A1E1A
:100A6000BB681A603B699B6A002B1ED03B699B6A7E
:100A70007B603B69DB693A69126A9A603B691B6A71
:100A80003A69D2695A607B685A683B6918339A425E
:100A900003D13B691A6A7B685A603B6900229A62FB
:100AA0007B681B685A1E7B681A603B69DB6A0122FF
:100AB0009A40384B1B681343364A13603B69DA6A25
:100AC000354913469B0013449B000B4404331B68B9
:100AD0003B603B693A689A603B689A683B69DA60B8
:100AE0003B689B683A6904325A603B691A1D3B684F
:100AF0009A603B69DA6A13469B0013449B00264ABE
:100B00001A443B695A613B69DA6A234913469B00E0
:100B100013449B000B441B68591C1F4813469B0041
:100B200013449B00034419603B69DA6A1B4B1B6842
:100B3000DB6A9A427FF65DAF0123FB6159E7174BF1
:100B40001B68DA6A144913469B0013449B000B444C
:100B50001B68012B01D90123FB61114B1B68002B82
:100B600007D00123FB6104E00E4B1B6801330D4AE3
:100B70001360FB6918462037BD4680BD4001002048
:100B80001C010020D0000020D400002030010020F3
:100B900038010020200100204400002040000020F7
:100BA0002C0100202801002080B485B000AF1C4B30
:100BB0001B68002B03D01B4B01221A602AE0194B43
:100BC00000221A60184B1B687B607B68B3FA83F3C2
:100BD000FB70FB78C3F11F03FB60FA6813469B00B0
:100BE00013449B00114A1344BB60BB685B685A689E
:100BF000BB685A60BB685A68BB6808339A4204D124
:100C0000BB685B685A68BB685A60BB685B68DB6836
:100C1000074A136000BF1437BD4680BC704700BF51
:100C2000400100202C010020200100204400002071
:100C30004000002080B582B000AF786000F052F82C
:100C4000064B1B68012BF9D9054B4FF080521A60F7
:100C5000BFF34F8FBFF36F8FF0E700BF440000205A
:100C600004ED00E080B582B000AF00237B600CE0B3
:100C70007A6813469B0013449B00124A134418469B
:100C8000FFF776FA7B6801337B607B68042BEFD932
:100C90000D48FFF76DFA0D48FFF76AFA0C48FFF7A9
:100CA00067FA0C48FFF764FA0B48FFF761FA0B4B41
:100CB000054A1A600A4B054A1A6000BF0837BD464C
:100CC00080BD00BF44000020A8000020BC00002020
:100CD000D8000020EC00002004010020D0000020FB
:100CE000D400002080B582B000AF19E000F0DEF83B
:100CF000104BDB68DB687B607B6804331846FFF7CA
:100D000085FA0D4B1B68013B0B4A13600B4B1B68AC
:100D1000013B0A4A136000F0E3F8786800F010F82D
:100D2000064B1B68002BE1D100BF00BF0837BD4652
:100D300080BD00BFEC000020180100200001002051
:100D400080B582B000AF78607B681B6B184600F0FE
:100D500099F9786800F096F900BF0837BD4680BD64
:100D600080B400AF094B1B681B68002B04D1084BF3
:100D70004FF0FF321A6005E0044B1B68DB681B680C
:100D8000034A136000BFBD4680BC7047D0000020FE
:100D90003801002080B485B000AFF860B9607A6097
:100DA000FB68043BFB60FB684FF080721A60FB68D5
:100DB000043BFB60BB6823F00102FB681A60FB6820
:100DC000043BFB60084AFB681A60FB68143BFB604D
:100DD0007A68FB681A60FB68203BFB60FB6818467A
:100DE0001437BD4680BC7047ED0D000880B483B059
:100DF00000AF00233B604FF0BF0383F31188BFF3C4
:100E00006F8FBFF34F8F7B6000BF00BF3B68002B2D
:100E1000FCD000BF00BF0C37BD4680BC704700004F
:100E2000074B19680868B0E8F00F80F30988BFF332
:100E30006F8F4FF0000080F311884EF00D0E704759
:100E40004000002000BF00BF06480068006880F333
:100E5000088862B661B6BFF34F8FBFF36F8F00DFB4
:100E600000BF000008ED00E000BF00BF80B500AF8C
:100E70000C4B1B680B4A43F47F031360094B1B6840
:100E8000084A43F07F43136000F090F8064B0022BD
:100E90001A60FFF7D9FFFFF787FEFFF7A7FF0023D0
:100EA000184680BD20ED00E00400002080B483B02F
:100EB00000AF4FF0BF0383F31188BFF36F8FBFF311
:100EC0004F8F7B6000BF054B1B680133034A1360E3
:100ED00000BF0C37BD4680BC704700BF0400002037
:100EE00080B483B000AF0A4B1B68013B084A136013
:100EF000074B1B68002B05D100237B607B6883F3C5
:100F0000118800BF00BF0C37BD4680BC704700BFD2
:100F100004000020000000000000000000000000AD
:100F2000EFF30980BFF36F8F0D4B1A6820E9F00FC4
:100F300010602DE908404FF0BF0080F31188FFF7E3
:100F400033FE4FF0000080F31188BDE808401968B7
:100F50000868B0E8F00F80F30988BFF36F8F70471F
:100F60004000002000BF00BF80B582B000AF4FF04E
:100F7000BF0383F31188BFF36F8FBFF34F8F7B6085
:100F800000BFFFF70BFD0346002B03D0064B4FF0CD
:100F900080521A6000233B603B6883F3118800BFD6
:100FA00000BF0837BD4680BD04ED00E080B400AF4F
:100FB000084B00221A60084B00221A60074B46F6C5
:100FC0005F521A60034B07221A6000BFBD4680BC07
:100FD000704700BF10E000E018E000E014E000E01F
:100FE00080B584B000AF78600023FB607B6803F0BD
:100FF0000703002B0ED07B6823F0070308337A68C1
:101000009A4205D27B6823F0070308337B6001E036
:1010100000237B60FFF7C8FB174B1B68002B05D133
:10102000164B23F007031A46134B1A607B68002BFC
:101030001BD0134B1A687B68134443F677629342C4
:1010400013D80F4B1A687B681A440D4B1B689A42E1
:101050000BD9094B1A680A4B1B681344FB60084BF9
:101060001A687B681344064A1360FFF7ABFBFB6802
:1010700018461037BD4680BDC83F00204B010020F8
:10108000C43F002080B483B000AF786000BF0C374D
:10109000BD4680BC7047000080B500AF01220F2123
:1010A000074801F059FA012002F0FAF800220F2156
:1010B000034801F051FA012002F0F2F800BF80BDB0
:1010C000000C014080B582B000AF0346FB710022E6
:1010D0000E21304801F040FA012002F0E1F8FB79DE
:1010E0001B09DBB203F00103DBB21A4609212A48CF
:1010F00001F032FAFB795B09DBB203F00103DBB2EA
:101100001A460A21244801F027FAFB799B09DBB231
:1011100003F00103DBB21A460B211F4801F01CFA51
:10112000FB79DB09DBB21A460C211B4801F014FAEB
:10113000FFF7B2FFFB7903F00103DBB21A46092186
:10114000154801F009FAFB795B08DBB203F00103F3
:10115000DBB21A460A21104801F0FEF9FB799B0820
:10116000DBB203F00103DBB21A460B210A4801F09F
:10117000F3F9FB79DB08DBB203F00103DBB21A46BB
:101180000C21054801F0E8F9FFF786FF00BF08379A
:10119000BD4680BD000C01400008014080B500AF95
:1011A000142002F07DF8294B0E221A80274B0422CE
:1011B0009A70264B0222DA702449254801F0E2F8A1
:1011C000224B0F221A802149214801F0DBF80F2021
:1011D00002F066F81D4B04229A701C4B0222DA7052
:1011E0001A4B09221A8019491A4801F0CBF8174BFB
:1011F0000A221A801549174801F0C4F8134B0B2234
:101200001A801249134801F0BDF8104B0C221A80C5
:101210000E49104801F0B6F8012002F041F83320E1
:10122000FFF750FF3220FFF74DFF2820FFF74AFF5E
:101230000A2002F035F80E20FFF744FF0220FFF7E6
:1012400041FF00F009F800BF80BD00BFCC3F002087
:10125000000C01400008014080B500AF0120FFF7FD
:1012600031FF00BF80BD000080B582B000AF0346F3
:10127000FB7101220E21304801F06EF90A2002F0C4
:101280000FF8FB791B09DBB203F00103DBB21A464E
:1012900009212A4801F060F9FB795B09DBB203F010
:1012A0000103DBB21A460A21244801F055F9FB7903
:1012B0009B09DBB203F00103DBB21A460B211F4886
:1012C00001F04AF9FB79DB09DBB21A460C211B4815
:1012D00001F042F9FFF7E0FEFB7903F00103DBB216
:1012E0001A460921154801F037F9FB795B08DBB292
:1012F00003F00103DBB21A460A21104801F02CF971
:10130000FB799B08DBB203F00103DBB21A460B2129
:101310000A4801F021F9FB79DB08DBB203F0010395
:10132000DBB21A460C21054801F016F9FFF7B4FEAE
:1013300000BF0837BD4680BD000C014000080140D9
:1013400080B584B000AF78600023FB7309E0FB7BBD
:101350005A1CFA731A467B6813441B781846FFF729
:1013600083FFFB7B7A6813441B78002BEFD100BF0F
:1013700000BF1037BD4680BD80B584B000AF0346C6
:101380000A46FB711346BB71FB79032B19D801A2E6
:1013900052F823F0A5130008AB130008B31300089C
:1013A000BB130008BB79FB730BE0BB794033FB73C5
:1013B00007E0BB791033FB7303E0BB795033FB7359
:1013C00000BFFB7B63F07F03DBB21846FFF77AFEBA
:1013D00000BF1037BD4680BD80B586B000AF7860D5
:1013E0007B6807F108010A22184602F060FB07F14A
:1013F00008031846FFF7A4FF00BF1837BD4680BD9D
:1014000080B400AFFEE7000080B590B000AF0346A7
:10141000FB710023BB87002387F83E30002387F849
:101420003F30FB790F2B00F2D78001A252F823F056
:10143000711400088F140008AD140008CB140008C4
:10144000E9140008071500082515000843150008D1
:10145000611500087F150008D9150008D915000886
:10146000D9150008D91500089D150008BB150008FE
:101470000023BB87002387F83E30002387F83F30E6
:1014800007F13C031946584800F07CFFA7E0012310
:10149000BB87002387F83E30002387F83F3007F1F1
:1014A0003C031946504800F06DFF98E00223BB87CB
:1014B000002387F83E30002387F83F3007F13C03D4
:1014C0001946494800F05EFF89E00323BB870023EB
:1014D00087F83E30002387F83F3007F13C03194678
:1014E000414800F04FFF7AE00423BB87002387F8D0
:1014F0003E30002387F83F3007F13C0319463A4855
:1015000000F040FF6BE00523BB87002387F83E30E7
:10151000002387F83F3007F13C031946324800F0BA
:1015200031FF5CE00623BB87002387F83E300023B1
:1015300087F83F3007F13C0319462B4800F022FFA3
:101540004DE00723BB87002387F83E30002387F850
:101550003F3007F13C031946234800F013FF3EE0FB
:101560000023BB87002387F83E30002387F83F30F5
:1015700007F13C0319461D4800F004FF2FE001234A
:10158000BB87002387F83E30002387F83F3007F100
:101590003C031946154800F0F5FE20E00423BB8704
:1015A000002387F83E30002387F83F3007F13C03E3
:1015B00019460F4800F0E6FE11E00523BB87002323
:1015C00087F83E30002387F83F3007F13C03194687
:1015D000074800F0D7FE02E0FFF712FF00BF00BF90
:1015E0004037BD4680BD00BF00080140000C0140EF
:1015F0000010014080B582B000AF786039603B6870
:101600001B78092B05D93B681B780D2B01D80123CA
:1016100077E17B689A4A934213D13B681B7819465D
:10162000984A0B465B000B449B0013443A6807CA78
:1016300083E80700944B9B69934A43F400739361DA
:1016400013E03B681B7819468E4A0B465B000B443F
:101650009B001344C0333A6807CA83E807008A4BEB
:101660009B69894A43F4806393613B681B78184601
:10167000FFF7CAFE7A68936843F0010393600A207B
:1016800001F0E2FD7A68936843F00103936001F092
:1016900093FC03467D4AA2FB03239B0C1C2B14D016
:1016A0001C2B19D8082B02D0102B07D014E0764B36
:1016B0005B68754A23F44043536014E0724B5B68E7
:1016C000714A23F4404353600DE06F4B5B686E4AF0
:1016D00023F44043536006E06B4B5B686A4A43F473
:1016E0000043536000BF7A68936843F0040393603B
:1016F0007A6893686FF3CB2393603B681B780F2B5A
:1017000000F2A88001A252F823F000BF4D17000894
:1017100063170008791700088F170008A51700083D
:10172000BB170008D1170008E7170008FD170008CD
:101730001318000855180008551800085518000817
:1017400055180008291800083F1800083B689B78C6
:1017500003F00703D9B27A68136961F302031361D6
:101760007BE03B689B7803F00703D9B27A68136982
:1017700061F3C503136170E03B689B7803F00703D6
:10178000D9B27A68136961F38813136165E03B6825
:101790009B7803F00703D9B27A68136961F34B238E
:1017A00013615AE03B689B7803F00703D9B27A686B
:1017B000136961F30E3313614FE03B689B7803F0CC
:1017C0000703D9B27A68136961F3D133136144E036
:1017D0003B689B7803F00703D9B27A68136961F319
:1017E0009443136139E03B689B7803F00703D9B257
:1017F0007A68136961F3575313612EE03B689B7855
:1018000003F00703D9B27A68136961F31A631361AD
:1018100023E03B689B7803F00703D9B27A68136929
:1018200061F3DD63136118E03B689B7803F0070305
:10183000D9B27A68D36861F30E33D3600DE03B68A8
:101840009B7803F00703D9B27A68D36861F3D13388
:10185000D36002E0FFF7D4FD00BF3B685B78002B4C
:1018600002D0012B06D013E07A6893686FF341032E
:10187000936010E07A68936843F0020393600AE093
:1018800000240140D03F00200010024083DE1B43B3
:10189000FFF7B6FD00BF3B685B681B7803F00103F0
:1018A000DBB2002B22D07A68536843F40003536004
:1018B0003B681B7803F01F03D9B27A68536861F361
:1018C000040353603B68DB78012B05D17A685368C9
:1018D00043F04003536004E07A6853686FF3861363
:1018E00053607A68536843F4007353607A6893686E
:1018F00043F4603393607A68936843F48013936091
:10190000002318460837BD4680BD00BF80B487B0AD
:1019100000AFF8600B467A60FB7200237B61FB68C6
:10192000304A934208D1FA7A13465B0013449B0075
:101930002D4A13447B6108E0FA7A13465B00134496
:101940009B00C033284A13447B61FB680022DA62A3
:10195000FB6800221A63FB6800225A637B691B78CC
:1019600003F01F03D9B2FA68536B61F304035363A6
:101970007B695B78002B0CD1FA68936843F4801381
:10198000936000BFFB681B68C3F34003DBB2002B0E
:10199000F8D07B69DB78002B08D0FB68DB6C9AB24F
:1019A0007B681A807B6802337B6016E00023FB743F
:1019B0000AE0FB68DB6C9AB27B681A807B680233B2
:1019C0007B60FB7C0133FB74FB68DB6AC3F303536E
:1019D000DBB21A46FB7C9342EBD900BF1C37BD46F5
:1019E00080BC704700240140D03F002080B500AF8C
:1019F000134B1B68C3F34003DBB2012B0FD1104B19
:101A00005B6BC3F30403DBB219460E4A0B465B0063
:101A10000B449B00134408331B6898470EE00A4BA5
:101A20005B6BC3F30403DBB21946064A0B465B004B
:101A30000B449B001344C8331B68984700BF80BD0C
:101A400000240140D03F00200028014080B400AFB6
:101A5000FEE7000080B582B000AF0A4B1B687B60D8
:101A60003B1D1946084800F08DFC084B1B687B6045
:101A70003B1D1946044800F085FC00BF0837BD46F1
:101A800080BD00BFB03B000800080140B43B000827
:101A900080B582B000AF7860844B7A6807CA83E86B
:101AA0000700834BDB69824A43F00073D361FFF781
:101AB000D1FF804B5B68C3F30003DBB2002B1FD167
:101AC0007C4B5B68C3F34003DBB2012B18D1794A2E
:101AD00013686FF341031360764A136843F0010300
:101AE000136000BF734B5B68C3F30003DBB2012BD1
:101AF000F8D1704B5B68C3F34003DBB2002BF1D12C
:101B00007B681B78002B05D06A4A136843F04003BA
:101B1000136004E0674A13686FF3861313607B68F1
:101B20005B78002B05D0634A136843F01003136001
:101B300004E0604A13686FF3041313605D4A13688E
:101B40006FF3820313607B689B78002B05D0594AA2
:101B5000136843F00803136004E0564A13686FF3F8
:101B6000C303136001F014FA0346534A934203D0AF
:101B7000524A934223D045E07B68DB78032B3ED862
:101B800001A252F823F000BF991B0008A31B000814
:101B9000AD1B0008B51B0008464B4FF4A022DA61CC
:101BA0000CE0444B4FF4E012DA6107E0414B444A49
:101BB000DA6103E03F4B434ADA6100BF1FE07B6814
:101BC000DB78032B1DD801A252F823F0DD1B00089F
:101BD000E51B0008ED1B0008F51B0008354B3A4AD1
:101BE000DA610BE0334B394ADA6107E0314B384AAE
:101BF000DA6103E02F4B374ADA6100BF01E000BF32
:101C000000E000BF7B681B79032B37D801A252F894
:101C100023F000BF251C00083B1C0008511C0008D5
:101C2000671C0008234AD3696FF3DF73D361214A2D
:101C3000D3696FF39E73D36123E01E4AD36943F0E7
:101C40000043D3611B4AD3696FF39E73D36118E0DD
:101C5000184AD3696FF3DF73D361164AD36943F02F
:101C60008043D3610DE0134AD36943F00043D3614D
:101C7000104AD36943F08043D36102E0FFF7E6FEE8
:101C800000BF7B685B79002B28D00A4A536943F078
:101C900002035361074A536943F0100353610E4B2B
:101CA0001B680D4A43F44013136027E050410020A5
:101CB000001002400064004000127A0000366E01FD
:101CC00001001C0004001C000100090002001C00AF
:101CD00005001C000E001C0000E100E0224A5369D0
:101CE0006FF341035361204A53696FF30413536147
:101CF0001E4B1B681D4A43F4401313601A4A536974
:101D000043F480635361184A536943F400435361B9
:101D1000174B1B68164A43F480031360124B5B6831
:101D2000C3F30003DBB2012B18D10F4B5B68C3F385
:101D30004003DBB2002B11D10B4A13686FF3410350
:101D40001360094A13686FF30003136000BF064B6A
:101D50005B68C3F30003DBB2012BF8D00023184605
:101D60000837BD4680BD00BF0064004080E100E050
:101D700000E100E080B400AF074B1B69064A43F066
:101D800000731361044B1B69034A23F00073136152
:101D900000BFBD4680BC70470010024080B500AF58
:101DA000024B9B68984700BF80BD00BF5041002098
:101DB00080B500AF024B9B68984700BF80BD00BF55
:101DC0005041002080B500AFFFF7D4FF0248FFF775
:101DD0005FFE00BF80BD00BF5041002080B483B0D3
:101DE00000AF0346FB71FB790F2B54D801A252F8C8
:101DF00023F000BF351E0008431E0008511E0008D6
:101E00005F1E00086D1E00087B1E00087B1E000878
:101E10007B1E00087B1E00087B1E0008891E000830
:101E2000891E0008891E0008891E0008891E0008F6
:101E3000891E00081A4B1B68194A43F040031360BF
:101E400029E0174B1B68164A43F08003136022E019
:101E5000134B1B68124A43F4807313601BE0104B52
:101E60001B680F4A43F40073136014E00C4B1B68AB
:101E70000B4A43F4806313600DE0094B1B68084A6A
:101E800043F40003136006E0064B1B68054A43F465
:101E90008073136000BF00BF0C37BD4680BC704725
:101EA00000E100E004E100E080B483B000AF03464D
:101EB000FB71FB790F2B54D801A252F823F000BF1D
:101EC000011F00080F1F00081D1F00082B1F00081E
:101ED000391F0008471F0008471F0008471F000858
:101EE000471F0008471F0008551F0008551F00081E
:101EF000551F0008551F0008551F0008551F0008F2
:101F00001A4B1B68194A23F04003136029E0174B52
:101F10001B68164A23F08003136022E0134B1B68F2
:101F2000124A23F4807313601BE0104B1B680F4AA6
:101F300023F40073136014E00C4B1B680B4A23F46A
:101F4000806313600DE0094B1B68084A23F400030B
:101F5000136006E0064B1B68054A23F48073136088
:101F600000BF00BF0C37BD4680BC704700E100E0F9
:101F700004E100E080B584B000AF7860654B9B69F8
:101F8000644A43F0010393617B681B889B089BB202
:101F9000FB737B681B88DBB203F00303DBB29B009F
:101FA000BB730023BB607B681B893B810123BB7231
:101FB0007B685B6807F108021146184600F0E2F9F9
:101FC0007B681B7B002B0BD1534BDB687A68128834
:101FD000114601228A4011464F4A0B43D36029E043
:101FE0007B681B7B012B0BD14B4B9B687A6812885B
:101FF000114601228A401146474A0B43936019E07B
:102000007B681B7B022B15D1434BDB687A681288F7
:10201000114601228A4011463F4A0B43D3603E4B92
:102020009B687A681288114601228A4011463A4A12
:102030000B439360394AFB7B023352F82320BB7B6E
:102040000F2101FA03F3DB4318463449FB7B0240BE
:10205000023341F82320314AFB7B023352F823201C
:102060007B685B682E498B4216D07B685B682D4984
:102070008B420FD07B685B682B498B4208D07B6812
:102080005B682A498B4201D1042306E0002304E067
:10209000032302E0012300E00023B97B8B401846B4
:1020A0001E49FB7B0243023341F823207B681B88D7
:1020B00019467B681B691E4A42F821307B685B7BAE
:1020C000012B11D1144B1B687A681288114601222A
:1020D0008A401146104A0B4313607B681B88DBB2B1
:1020E0001846FFF77BFE11E00B4B1B687A681288DD
:1020F000114601228A40D2431146074A0B40136021
:102100007B681B88DBB21846FFF7CEFE00BF103796
:10211000BD4680BD001002400004014000000140A7
:1021200000080140000C0140001001400014014073
:102130005C41002080B500AF054B1B689847054BFC
:102140005B69044A43F00103536100BF80BD00BFD7
:102150005C4100200004014080B500AF054B5B6886
:102160009847054B5B69044A43F00203536100BF83
:1021700080BD00BF5C4100200004014080B500AF7D
:10218000054B9B689847054B5B69044A43F0040381
:10219000536100BF80BD00BF5C41002000040140CE
:1021A00080B500AF054BDB689847054B5B69044A77
:1021B00043F00803536100BF80BD00BF5C410020B5
:1021C0000004014080B500AF054B1B699847054BE3
:1021D0005B69044A43F01003536100BF80BD00BF38
:1021E0005C4100200004014080B500AF264B5B69D4
:1021F00003F02003002B08D0234B5B69224A43F0F5
:1022000020035361214B5B6998471F4B5B6903F0C7
:102210004003002B08D01C4B5B691B4A43F0400372
:1022200053611A4B9B699847174B5B6903F0800316
:10223000002B08D0144B5B69134A43F080035361B1
:10224000124BDB699847104B5B6903F48073002BDA
:1022500008D00D4B5B690C4A43F4807353610B4B00
:102260001B6A9847084B5B6903F40073002B08D086
:10227000054B5B69044A43F400735361034B5B6A8B
:10228000984700BF80BD00BF000401405C410020B2
:1022900080B500AF2D4B5B6903F48063002B08D041
:1022A0002A4B5B69294A43F480635361284B9B6A3C
:1022B0009847264B5B6903F40063002B08D0234B3F
:1022C0005B69224A43F400635361214BDB6A984700
:1022D0001E4B5B6903F48053002B08D01B4B5B69DA
:1022E0001A4A43F480535361194B1B6B9847174BA1
:1022F0005B6903F40053002B08D0144B5B69134A4D
:1023000043F400535361124B5B6B98470F4B5B696F
:1023100003F48043002B08D00C4B5B690B4A43F459
:10232000804353610A4B9B6B9847084B5B6903F4EE
:102330000043002B08D0054B5B69044A43F400437B
:102340005361034BDB6B984700BF80BD0004014025
:102350005C41002080B485B000AF0346FB80FB8861
:10236000072B03D8FB889B009BB204E0FB88083B4B
:102370009BB29B009BB2FB81FB8918461437BD467C
:1023800080BC704790B585B000AF786039607B68DD
:102390006B4A934206D16B4B9B696A4A43F0040334
:1023A00093612AE07B68684A934206D1654B9B693A
:1023B000644A43F0080393611FE07B68634A9342D9
:1023C00006D1604B9B695F4A43F01003936114E0B0
:1023D0007B685F4A934206D15A4B9B69594A43F046
:1023E0002003936109E07B685A4A934205D1554B1B
:1023F0009B69544A43F0400393613B681B889BB23E
:10240000072B01D87B6801E07B680433FB603B68E5
:102410001B889BB21846FFF79DFF03461A460F2301
:102420009340DA43FB681B681A40FB681A603B68FC
:102430009B78DBB2002B0ED03B689B78DBB2012B84
:1024400009D03B689B78DBB2022B04D03B689B78B9
:10245000DBB2032B56D13B689B78DBB2032B1CD13C
:102460003B681B889BB21846FFF774FF03461A4669
:10247000082303FA02F2FB681B681A43FB681A6020
:102480003B681B889BB21A4601239340DA437B6862
:10249000DB681A407B68DA604DE03B689B78DBB212
:1024A000022B1CD13B681B889BB21846FFF752FFDA
:1024B00003461A46082303FA02F2FB681B681A4314
:1024C000FB681A603B681B889BB21A46012303FA1B
:1024D00002F27B68DB681A437B68DA602BE03B68BA
:1024E0009B78DBB29C003B681B889BB21846FFF7C9
:1024F00031FF034604FA03F2FB681B681A43FB68CA
:102500001A6018E03B689B78DBB2043B9B003A689A
:10251000D278D2B243EA02043B681B889BB21846C9
:10252000FFF718FF034604FA03F2FB681B681A431F
:10253000FB681A6000BF00BF1437BD4690BD00BFE6
:102540000008014000100240000C01400010014052
:10255000001401400018014080B483B000AF7860DF
:102560000B467B8013467B707B78DBB2012B0BD153
:102570007B889BB21A46012303FA02F27B68DB6870
:102580001A437B68DA600AE07B889BB21A46012313
:102590009340DA437B68DB681A407B68DA6000BFEF
:1025A0000C37BD4680BC704780B483B000AF786004
:1025B0000B467B807B689B687A8892B2D3409BB243
:1025C00003F001039BB218460C37BD4680BC704730
:1025D00080B483B000AF78600B467B807B889BB271
:1025E0001A46012303FA02F27B68DB685A407B68D3
:1025F000DA6000BF0C37BD4680BC704780B400AFC6
:10260000FEE7000080B59CB000AF78600B46FB7021
:102610001346BB707B68B3F1804F40F08980FB7834
:10262000022B43D0022B00F3BB81002B00F0BA81B8
:10263000012B00D0B4E1BB78013B032B32D801A2BF
:1026400052F823F055260008692600087D26000868
:1026500091260008B04B1B68FB6607F16C03194616
:10266000AE48FFF78FFE20E0AD4B1B68FB6607F11D
:102670006C031946A948FFF785FE16E0A94B1B68B5
:10268000FB6607F16C031946A448FFF77BFE0CE0DC
:10269000A54B1B68FB6607F16C0319469F48FFF7C3
:1026A00071FE02E0FFF7AAFF85E184E1BB78013B00
:1026B000032B39D801A252F823F000BFCD26000821
:1026C000ED26000801270008152700080023A7F8B9
:1026D0006C30012387F86E30002387F86F3007F1E4
:1026E0006C0319468D48FFF74DFE20E08F4B1B68A9
:1026F000FB6607F16C0319468848FFF743FE16E0B6
:102700008B4B1B68FB6607F16C0319468348FFF788
:1027100039FE0CE0874B1B68FB6607F16C0319461A
:102720007E48FFF72FFE02E0FFF768FF43E142E13A
:102730007B68814A934240F08980FB78022B43D02A
:10274000022B00F33181002B00F03081012B00D0EF
:102750002AE1BB78013B032B32D801A252F823F0C7
:10276000712700088527000899270008AD27000871
:10277000724B1B68FB6607F16C0319466748FFF74D
:1027800001FE20E06E4B1B68FB6607F16C031946E7
:102790006248FFF7F7FD16E05F4B1B68FB6607F129
:1027A0006C0319466748FFF7EDFD0CE05C4B1B68B6
:1027B000FB6607F16C0319466248FFF7E3FD02E090
:1027C000FFF71CFFF7E0F6E0BB78013B032B39D89D
:1027D00001A252F823F000BFE9270008FD270008F6
:1027E0001128000831280008574B1B68FB6607F1C9
:1027F0006C0319464948FFF7C5FD26E0534B1B689B
:10280000FB6607F16C0319464448FFF7BBFD1CE06B
:102810000023A7F86C30012387F86E30002387F877
:102820006F3007F16C0319464648FFF7ABFD0CE02B
:102830003E4B1B68FB6607F16C0319464148FFF7E6
:10284000A1FD02E0FFF7DAFEB5E0B4E07B68404AA4
:10285000934240F0B080FB78022B43D0022B00F370
:10286000A780002B00F0A680012B00D0A0E0BB7851
:10287000013B032B32D801A252F823F08D28000827
:10288000A1280008B5280008C92800082B4B1B68A0
:10289000FB6607F16C0319462A48FFF773FD20E039
:1028A000274B1B68FB6607F16C0319462548FFF7A9
:1028B00069FD16E0274B1B68FB6607F16C031946A0
:1028C0002048FFF75FFD0CE0234B1B68FB6607F118
:1028D0006C0319461B48FFF755FD02E0FFF78EFE1B
:1028E00069E068E0BB78013B032B55D801A252F8A0
:1028F00023F000BF052900085D29000871290008A0
:1029000085290008104B1B68FB6607F16C0319460C
:102910000C48FFF737FD42E0B83B000800080140D3
:10292000BC3B0008C03B0008C43B0008C83B000893
:10293000CC3B0008D03B000800040040D43B00081A
:10294000D83B0008000C0140DC3B0008E03B0008DD
:1029500000080040E43B0008E83B0008184B1B68F7
:10296000FB6607F16C0319461648FFF70BFD16E0EE
:10297000154B1B68FB6607F16C0319461148FFF7FE
:1029800001FD0CE0114B1B68FB6607F16C03194657
:102990000C48FFF7F7FC02E0FFF730FE0BE00AE01F
:1029A00000BF08E000BF06E000BF04E000BF02E097
:1029B00000BF00E000BF00BF7037BD4680BD00BF54
:1029C000E03B0008000C0140EC3B0008F03B000835
:1029D00090B585B000AFF860B9607A60BB685B7A8B
:1029E000002B40F0C180F86800F0D0F8614AFB6825
:1029F0001360FB68B3F1804F0CD15F4BDB695E4A1B
:102A000043F00103D3615D4ABB6814460FCB84E8F1
:102A10000F0024E0FB685A4A93420ED1564BDB6903
:102A2000554A43F00203D361544BBA6803F11004D2
:102A300013460FCB84E80F0011E0FB68514A934224
:102A40000DD14D4BDB694C4A43F00403D3614B4B32
:102A5000BA6803F1200413460FCB84E80F00BB686B
:102A60001B88013B1A46FB689A62BB685B881A4662
:102A7000FB68DA62BB689B881A46FB681A63BB680E
:102A80009B88002B04D0FA68136843F0800313601E
:102A90007B681B78022B1CD0022B20DC002B02D081
:102AA000012B0BD01BE0FA6813686FF34613136019
:102AB000FA6813686FF30413136013E0FA6813687D
:102AC0006FF346131360FA68136843F01003136042
:102AD00008E0FA68136843F06003136002E0FFF750
:102AE0008DFD00BF00220021F868FFF78BFDFA681A
:102AF000136843F001031360BB681B7A002B25D1D8
:102B0000FA68D36843F00103D360FB68B3F1804FE8
:102B100006D11D4B1B681C4A43F08053136025E00F
:102B2000FB68174A934206D1174B1B68164A43F0BD
:102B3000005313601AE0FB68124A934216D1124BFD
:102B40001B68114A43F0804313600FE000BFFB682D
:102B50001B69C3F30003DBB2002BF8D0FA681369DA
:102B60006FF30003136101E0FFF748FD00BF143766
:102B7000BD4690BDC8410020001002409841002091
:102B8000000400400008004000E100E080B483B091
:102B900000AF78607B68B3F1804F06D13B4BDB69B7
:102BA0003A4A43F00103D36114E07B68384A934208
:102BB00006D1364BDB69354A43F00203D36109E0A5
:102BC0007B68344A934205D1304BDB692F4A43F08E
:102BD0000403D3617B6800221A607B680022DA62FA
:102BE0007B6800221A627B6800229A617B6800225F
:102BF000DA617B6800225A637B6800229A637B68F3
:102C00000022DA637B6800221A647B6800225A6221
:102C10007B6800225A607B6800229A627B68B3F16D
:102C2000804F0CD1194B1B69184A43F00103136103
:102C3000164B1B69154A23F00103136120E07B68E2
:102C4000134A93420CD1114B1B69104A43F0020303
:102C500013610E4B1B690D4A23F0020313610FE051
:102C60007B680C4A93420BD1084B1B69074A43F01F
:102C700004031361054B1B69044A23F00403136129
:102C800000BF0C37BD4680BC704700BF001002403B
:102C9000000400400008004080B582B000AF4FF053
:102CA00080431B69C3F30003DBB2002B0BD07A68AF
:102CB000137843F0010313704FF0804213696FF3F0
:102CC000000313614EE04FF080431B69C3F34003E0
:102CD000DBB2002B0BD07A68137843F00203137039
:102CE0004FF0804213696FF3410313613AE04FF0F4
:102CF00080431B69C3F38003DBB2002B0BD07A68DF
:102D0000137843F0040313704FF0804213696FF39C
:102D10008203136126E04FF080431B69C3F3C003B5
:102D2000DBB2002B0BD07A68137843F008031370E2
:102D30004FF0804213696FF3C303136112E04FF049
:102D400080431B69C3F30013DBB2002B0AD07A68FF
:102D5000137843F0100313704FF0804213696FF340
:102D600004131361034BDB687868984700BF08378A
:102D7000BD4680BD9841002080B582B000AF304B89
:102D80001B69C3F30003DBB2002B0AD07A68137807
:102D900043F0010313702A4A13696FF300031361B0
:102DA00046E0274B1B69C3F34003DBB2002B0AD07C
:102DB0007A68137843F002031370214A13696FF3A2
:102DC0004103136134E01E4B1B69C3F38003DBB284
:102DD000002B0AD07A68137843F004031370184A62
:102DE00013696FF38203136122E0154B1B69C3F370
:102DF000C003DBB2002B0AD07A68137843F00803D3
:102E000013700F4A13696FF3C303136110E00C4B87
:102E10001B69C3F30013DBB2002B09D07A68137867
:102E200043F010031370064A13696FF30413136120
:102E3000044BDB697868984700BF0837BD4680BD02
:102E4000000400409841002080B582B000AF334BB1
:102E50001B69C3F30003DBB2002B0AD07A68137836
:102E600043F0010313702D4A13696FF300031361DC
:102E70004BE02A4B1B69C3F34003DBB2002B0AD0A3
:102E80007A68137843F002031370244A13696FF3CE
:102E90004103136139E0214B1B69C3F38003DBB2AB
:102EA000002B0FD07A68137843F0040313701B4A89
:102EB00013696FF3820313617A68137843F0010397
:102EC000137022E0154B1B69C3F3C003DBB2002B68
:102ED0000AD07A68137843F0080313700F4A136915
:102EE0006FF3C303136110E00C4B1B69C3F30013B2
:102EF000DBB2002B09D07A68137843F0100313700B
:102F0000064A13696FF304131361054BDB6A786893
:102F1000984700BF0837BD4680BD00BF000800408D
:102F20009841002080B400AF0B4B5B689B0803F016
:102F30000303022B0AD0022B0AD8002B02D0012B4C
:102F400002D005E0054B03E0054B01E0054BFFE730
:102F50001846BD4680BC70470010024000127A003F
:102F60000024F400003FAB0180B500AFFFF7DAFFAB
:102F70000246054B5B681B0903F00F030349CB5C5A
:102F800022FA03F3184680BD001002401000002012
:102F900080B500AFFFF7E8FF0246054B5B681B0AF0
:102FA00003F007030349CB5C22FA03F3184680BD04
:102FB000001002400800002080B500AFFFF7D4FFEA
:102FC0000246054B5B68DB0A03F007030349CB5C51
:102FD00022FA03F3184680BD0010024008000020CA
:102FE00080B582B000AF3B1D0549184600F00CF8D3
:102FF000044BDB683879984700BF0837BD4680BD71
:1030000000300140CC41002080B483B000AF786034
:1030100039603B689B68C3F30003DBB2002B0FD021
:103020007A6813786FF3000313707A68137843F0AB
:10303000020313703A6813796FF38613137115E066
:103040003B689B68C3F34003DBB2002B0ED07A6869
:10305000137843F0010313707A6813786FF3410318
:1030600013703A6813796FF3C713137100BF0C37ED
:10307000BD4680BC7047000080B584B000AF78606A
:10308000064B1B68FB6007F10C0319460448FFF769
:1030900079F900BF1037BD4680BD00BFF43B000882
:1030A0000008014090B583B000AF786039603D4AB8
:1030B0003B6814460FCB84E80F003B4A7B681360E3
:1030C0007B683A4A934205D1394B9B69384A43F4AD
:1030D000006393613B681B881A467B689A627A6832
:1030E000136843F0800313603B685B881A467B6873
:1030F000DA623B689B881A467B681A633B685B7A96
:10310000022B1CD0022B20DC002B02D0012B0BD079
:103110001BE07A6813686FF3461313607A681368CC
:103120006FF30413136013E07A6813686FF34613A8
:1031300013607A68136843F01003136008E07A683C
:10314000136843F06003136002E0FEF77FFC00BFEA
:103150007868FFF791FF7A68136843F00103136002
:103160003B681B7A002B0BD17A68D36843F00103CC
:10317000D360104B1B680F4A43F0007313600CE0E0
:1031800000BF7B681B69C3F30003DBB2002BF8D0E0
:103190007A6813696FF30003136100BF0C37BD46F3
:1031A00090BD00BFEC410020FC410020002C0140FC
:1031B0000010024000E100E080B500AF054BDB6885
:1031C0009847054B1A6813696FF30003136100BF3A
:1031D00080BD00BFEC410020FC41002080B500AF65
:1031E000054BDB689847054B1A6813696FF3410379
:1031F000136100BF80BD00BFEC410020FC410020F6
:1032000080B500AF054BDB689847054B1A6813691A
:103210006FF30003136100BF80BD00BFEC410020CD
:10322000FC41002080B500AF054BDB689847054B9B
:103230001A6813696FF30003136100BF80BD00BFFC
:10324000EC410020FC41002080B586B000AF034671
:10325000FB80FFF7B1FE03460F4AA2FB03239B0C42
:103260009BB2013B9BB23B81FB88013B9BB27B81C4
:103270000023BB810023FB8101233B7400237B746B
:1032800000237B6107F1080319460448FFF70AFF92
:1032900000BF1837BD4680BD83DE1B43002C0140B4
:1032A00080B584B000AF0346FB800023FB6006E0DE
:1032B0004FF47A70FFF7C8FFFB680133FB60FB88AF
:1032C000FA689A42F4D300BF00BF1037BD4680BDF4
:1032D00080B584B000AF0346FB800023FB6006E0AE
:1032E0004FF47A70FFF7DCFFFB680133FB60FB886B
:1032F000FA689A42F4D300BF00BF1037BD4680BDC4
:1033000080B500AF054B1B6803F02003002B02D0F3
:10331000034BDB68984700BF80BD00BF0038014009
:103320000042002080B500AF054B1B6803F020036E
:10333000002B02D0034BDB69984700BF80BD00BF64
:10334000004400400042002080B500AF054B1B68E0
:1033500003F02003002B02D0034BDB6A984700BF29
:1033600080BD00BF004800400042002080B582B010
:1033700000AF0346FB71FB792B2B02D02D2B21D004
:1033800041E0002201212248FFF7E6F80120FFF783
:1033900087FF002202211E48FFF7DEF80120FFF719
:1033A0007FFF012203211A48FFF7D6F80120FFF71B
:1033B00077FF002204211648FFF7CEF80120FFF71F
:1033C0006FFF20E0012201211148FFF7C5F801201D
:1033D000FFF766FF002202210D48FFF7BDF801202C
:1033E000FFF75EFF002203210948FFF7B5F801202F
:1033F000FFF756FF002204210548FFF7ADF8012032
:10340000FFF74EFF00BF00BF0837BD4680BD00BFBD
:103410000008014080B584B000AF03463960FB80EE
:103420000023FB601AE003211148FFF7D1F80421C3
:103430000F48FFF7CDF8FB881846FFF705FF01217D
:103440000B48FFF7C5F802210948FFF7C1F8FB88D0
:103450001846FFF7F9FEFB680133FB60FA683B682A
:103460009A42E0D300BF00BF1037BD4680BD00BF09
:103470000008014080B400AFFEE7000080B400AF58
:103480000A4B5B68094A43F4A0135360074B1B685F
:10349000064A43F080731360044B5B68034A43F0B1
:1034A0000203536000BFBD4680BC7047001002405D
:1034B00080B400AF054B1B7883F00103DAB2034BF5
:1034C0001A7000BFBD4680BC704700BF3342002069
:1034D00080B500AF1D4B1B78002B05D01C4B1B6823
:1034E00001331B4A13602EE0194B1B68002B2AD0B6
:1034F000174B1B68174A1360164B1B684FF4FA6290
:1035000002FB03F3144A1360134B1A6813461B01A2
:103510009B1A9B001A46114BA3FB02239B09104ADE
:1035200013600F4B1B684FF41D6202FB03F30D4A3F
:10353000A2FB0323DB090C4A13600120FFF7B0FE56
:10354000034B00221A6000BF80BD00BF3342002041
:1035500034420020384200203C420020D34D62100B
:1035600040420020F11976054442002080B58EB01B
:1035700000AF0C23BB841E4BBB620C23BB852823EE
:10358000FB85012387F83030012387F83130194B50
:103590007B6307F124031846FEF7ECFC0A20FFF7D3
:1035A0007FFEFFF7E1FC0346134AA2FB03239B09BE
:1035B0009BB23B814FF4FA637B810023BB810023E4
:1035C000FB8100233B7400237B740C4B7B61002345
:1035D0003B713A1D07F1080319460948FFF7F8F94E
:1035E0000A20FFF75DFE00BF3837BD4680BD00BF33
:1035F000000C0140D1340008D34D6210B1340008F2
:103600000008004080B500AF034A00210348FEF7E0
:103610007DF900BF80BD00BF304200200024014082
:1036200080B586B000AF07F1100300221A609A80BF
:1036300000233B7101237B710023BB710023FB71CD
:1036400007F11003BB60094BFB603B1D194608489E
:10365000FDF7D0FF074B1B683B603B461946064809
:10366000FEF790FE00BF1837BD4680BD0536000846
:1036700000240140F83B0008000C014080B584B0F4
:1036800000AFFFF7FBFE6420FFF70AFE284B002285
:103690001A60284B00221A60274B00221A60274B21
:1036A00000221A60FFF762FF6420FFF7F9FDFDF7C3
:1036B00075FD6420FFF7F4FDFFF7B2FF6420FFF70C
:1036C000EFFD1F4B1B68FB6007F10C0319461D48FB
:1036D000FEF758FE0A20FFF7E3FD1B4B1B68FB605B
:1036E00007F10C0319461748FEF74CFE0A20FFF7B6
:1036F000D7FD164B1B68FB6007F10C0319461148F8
:10370000FEF740FE0A20FFF7CBFD114B1B68FB6064
:1037100007F10C0319460B48FEF734FE0A20FFF7A9
:10372000BFFD6420FFF7BCFD00BF1037BD4680BD64
:10373000384200203C420020404200204442002009
:10374000FC3B000800080140003C0008043C000865
:10375000083C000880B582B000AF0023FB71002355
:10376000BB71FFF74FFF0D212748FEF71DFF0346F2
:10377000002B0DD01E20FFF793FD0D212248FEF7F0
:1037800013FF0346002B06D0204B01221A7002E0E3
:103790001E4B00221A701E4B1B881A464FF47A6388
:1037A00002FB03F3002B01DA03F6FF731B135B42EA
:1037B0009BB203F59C5308339AB2164B1A80134BF5
:1037C0001B78012B0BD10023FB71BB79002B15D18A
:1037D0002B20FFF7CBFDBB790133BB710EE00B4B08
:1037E0001B78002B0AD10023BB71FB79002B05D17C
:1037F0002D20FFF7BBFDFB790133FB71064B1B68E6
:103800001846FCF76DFEACE7000C01403242002088
:1038100030420020220000204C42002080B500AF42
:10382000084B1B884FF496711846FFF7F3FD064BC3
:103830001B681846FCF704FF044B1B681846FCF78E
:103840004FFEEDE7220000204C42002048420020BD
:1038500080B500AF04210020FDF78EFD1E4B1B68D4
:10386000B3F57A7F05D31C4B1B681846FDF7B4FDF2
:1038700007E0194B1B681846FDF7AEFD1748FDF72A
:103880005FFD02210120FDF777FD154B1B68632BBF
:1038900005D9134B1B681846FDF79EFD07E0104B3A
:1038A0001B681846FDF798FD0C48FDF749FD0A21F5
:1038B0000020FDF761FD0B4B1B78002B03D10A485C
:1038C000FDF73EFD02E00948FDF73AFD084B1B6895
:1038D0001846FCF7B5FEBDE7404200200C3C00084E
:1038E0004442002032420020143C0008183C0008EA
:1038F0004842002080B500AFFDF7AEFC002100205B
:10390000FDF73AFD1448FDF71BFD1448FDF718FDBF
:1039100000210120FDF730FD1148FDF711FD0520C4
:10392000FFF7D6FCFDF798FC00210020FDF724FDF1
:103930000C48FDF705FD00210120FDF71DFD0A489B
:10394000FDF7FEFC6420FFF7ABFC084B1B68184634
:10395000FCF7C6FDD0E700BF1C3C0008343C000863
:103960003C3C0008503C0008583C000854420020F1
:1039700080B582B002AFFFF781FE214B0193012396
:10398000009300234FF480721E491F48FCF767FC28
:103990000346012B01D0FFF76DFD1C4B0193022361
:1039A000009300234FF4807219491A48FCF757FC22
:1039B0000346012B01D0FFF75DFD174B0193052353
:1039C000009300234FF4807211491448FCF747FC20
:1039D0000346012B01D0FFF74DFD114B019303234B
:1039E000009300234FF480720E490F48FCF737FC18
:1039F0000346012B01D0FFF73DFDFCF799FEFEE7E2
:103A000050420020683C0008513800084C42002019
:103A1000783C00085537000854420020F53800086B
:103A200048420020843C00081D3800080D488546A7
:103A3000AFF300800C480D490D4A002302E0D45832
:103A4000C4500433C4188C42F9D30A4A0A4C0023E8
:103A500001E013600432A242FBD300F075F8FFF7D7
:103A600087FFFEE700500020000000202400002017
:103A7000C83C00082400002058420020FEE7931EA6
:103A8000222B10B50C4604D900231C460B7020468F
:103A900010BD0A2A09D1002807DA2D230B70012155
:103AA0004042214400F006F8F1E70021F9E7FFF772
:103AB000E6BF0000F0B58BB005460B466E461D4CC8
:103AC00004F1200C374620686168083403C7644558
:103AD0003E46F7D1217920683971911E222938603C
:103AE0004FF0000104D919700B4618460BB0F0BD19
:103AF000581E8446B5FBF2F702FB175628366E4473
:103B000016F8286C0C460CF8016F2E46B2423D4662
:103B100001F10101EED900225A541919A51AAA423D
:103B2000E3DA10F8015F0E780132067001F80159EE
:103B3000F4E700BF9A3C000803460244934200D1D8
:103B4000704703F8011BF9E770B500260C4D0D4CCA
:103B5000641BA410A64209D100F01AF800260A4DF1
:103B60000A4C641BA410A64205D170BD55F8043B55
:103B700098470136EEE755F8043B98470136F2E7DF
:103B8000C03C0008C03C0008C03C0008C43C000821
:103B9000F8B500BFF8BC08BC9E467047F8B500BF3A
:083BA000F8BC08BC9E4670470A
:103BA80049444C45000000000C0006010B000100D0
:103BB80000000601010006010200060103000601DB
:103BC80001000100020001000300010006000601D7
:103BD80007000601060001000700010008000601B1
:103BE800090006010800010009000100080006019B
:103BF8000D00030001000402020004020300040295
:103C08000400040220202020000000004343570045
:103C1800435720004D6F74696F6E20436F6E747246
:103C28006F6C2050726F6A2E0000000057656C633D
:103C38006F6D650044522F536F6C696D616E20453E
:103C48006C6E61676172000052504D3D202020006B
:103C5800563D2020202020202020206D6D2F73002D
:103C68004C43445F53454E445F4441544100000077
:103C7800524541445F5441534B0000005354455052
:103C88005045525F48616E646C6C65725F54415375
:103C98004B0030313233343536373839616263643A
:103CA80065666768696A6B6C6D6E6F707172737444
:083CB80075767778797A000037
:043CC00055010008A2
:043CC40031010008C2
:103CC80004000000AAAAAAAA000000000102030436
:103CD80000000000000000000102030405060708B8
:043CE8000900E803E4
:0400000508003A2D88
:00000001FF
