:020000040800F2
:100000000C10002009050008FD040008FD0400088C
:10001000FD040008FD040008FD040008FD040008BC
:10002000FD040008FD040008FD040008FD040008AC
:10003000FD040008FD040008FD040008FD0400089C
:10004000FD040008FD040008FD040008FD0400088C
:10005000FD040008FD04000880B500AF40F2000375
:10006000C2F200031B68184600F060F980BD00BFB3
:1000700080B400AF41F20C03C2F2000340F2590217
:10008000C0F600021A60BD4680BC704780B400AF65
:1000900040F20003C2F200034FF000021A6040F287
:1000A0000403C2F200031B68002B10D041F21003BE
:1000B000C2F200034FF001021A7041F21403C2F2BF
:1000C000000340F2F502C0F600021A600FE041F2B0
:1000D0001003C2F200034FF000021A7041F2140341
:1000E000C2F2000340F28D02C0F600021A60BD4663
:1000F00080BC704780B500AF40F20003C2F200033D
:100100004FF001021A6048F28040C0F21E0000F079
:10011000EFF841F21003C2F200034FF000021A7030
:1001200041F21403C2F2000340F28D02C0F6000255
:100130001A6080BD80B400AF41F21403C2F2000324
:1001400040F28D02C0F600021A60BD4680BC7047C6
:1001500080B400AF40F20403C2F200034FF000028B
:100160001A6040F20803C2F200031B68002B10D093
:1001700041F21803C2F200034FF001021A7041F27B
:100180001C03C2F2000340F2B912C0F600021A606A
:100190000FE041F21803C2F200034FF000021A70A0
:1001A00041F21C03C2F2000340F25112C0F60002F9
:1001B0001A60BD4680BC704780B500AF40F20403B2
:1001C000C2F200034FF001021A6041F21803C2F2BA
:1001D00000034FF000021A7041F21C03C2F2000348
:1001E00040F25112C0F600021A6044F6206000F09E
:1001F0007FF880BD80B400AF41F21C03C2F200035F
:1002000040F25112C0F600021A60BD4680BC704731
:1002100080B500AF00F058F90346132B10D941F216
:100220002403C2F200034FF001021A7041F22003CE
:10023000C2F2000340F26522C0F600021A600FE02D
:1002400041F22403C2F200034FF000021A7041F29F
:100250002003C2F2000340F21122C0F600021A602D
:1002600080BD00BF80B500AF40F20803C2F20003BA
:100270004FF001021A6000F027F90346132B10D942
:1002800041F22403C2F200034FF001021A7041F25E
:100290002003C2F2000340F26522C0F600021A6099
:1002A00016E041F22403C2F200034FF000021A707C
:1002B00041F22003C2F2000340F21122C0F6000214
:1002C0001A6040F20803C2F200034FF000021A6005
:1002D00080BD00BF80B400AF41F22003C2F2000332
:1002E00040F21122C0F600021A60BD4680BC704781
:1002F00080B483B000AF786003E07B6803F1FF3324
:100300007B607B68002BF8D107F10C07BD4680BCF1
:10031000704700BF80B400AF40F60803C4F2010389
:100320001B68DBB21846BD4680BC704780B483B002
:1003300000AF78607B68012B0CD140F60C03C4F24F
:10034000010340F60C02C4F20102126842F40052AA
:100350001A600EE07B68002B0BD140F60C03C4F250
:10036000010340F60C02C4F20102126822F40052AA
:100370001A6007F10C07BD4680BC704780B400AF1F
:1003800041F21803C4F2020341F21802C4F202025D
:10039000126842F004021A604FF40063C4F20103D1
:1003A0004FF40062C4F20102126822F470021A6073
:1003B0004FF40063C4F201034FF40062C4F201027F
:1003C00012681A6040F60403C4F2010340F6040206
:1003D000C4F20102126822F470021A6040F60403AB
:1003E000C4F2010340F60402C4F20102126842F0B2
:1003F00022321A60BD4680BC704700BF80B500AF96
:10040000FFF7BCFF00F020F841F22C03C2F200031A
:100410001B68984741F21C03C2F200031B6898470F
:1004200041F21403C2F200031B68984741F2200313
:10043000C2F200031B68984741F20C03C2F20003AA
:100440001B689847E0E700BF80B500AF00F048F8B0
:10045000FFF740FFFFF7CEFEFFF76CFEFFF708FE49
:1004600080BD00BF80B400AF41F22803C2F2000398
:100470004FF001021A7041F22C03C2F2000340F265
:100480009142C0F600021A60BD4680BC704700BFB2
:1004900080B500AFFFF73EFF03461A4641F2300336
:1004A000C2F200031A6041F22803C2F200034FF0C7
:1004B00000021A7041F22C03C2F2000340F26542BE
:1004C000C0F600021A6080BD80B400AF41F2300374
:1004D000C2F200031B681846BD4680BC704700BFCF
:1004E00080B400AF41F22C03C2F2000340F2654237
:1004F000C0F600021A60BD4680BC704780B500AFF0
:1005000000F002F880BD00BF80B586B000AF40F2B9
:100510000002C2F2000240F20003C2F20003D31A4A
:10052000BB6040F20C02C2F2000240F20003C2F2D1
:100530000003D31A7B6040F2BC53C0F600037B611A
:1005400040F20003C2F200033B614FF00003FB7373
:1005500010E07B691B78DAB23B691A703B6903F1E2
:1005600001033B617B6903F101037B61FB7B03F1C9
:100570000103FB73FA7BBB689A42EAD340F20003A3
:10058000C2F200033B614FF00003FB730BE03B69D9
:100590004FF000021A703B6903F101033B61FB7BE2
:1005A00003F10103FB73FA7B7B689A42EFD3FFF7F9
:0C05B00025FF07F11807BD4680BD00BF05
:0400000508000000EF
:00000001FF
