:020000040800F2
:100000000C100020DD000008D1000008D10000081D
:10001000D1000008D1000008D1000008D10000087C
:10002000D1000008D1000008D1000008D10000086C
:10003000D1000008D1000008D1000008D10000085C
:10004000D1000008D1000008D1000008D10000084C
:10005000D1000008D100000880B483B000AF194B74
:100060001B68184A43F004031360174B1B68164AB9
:1000700023F470031360144B1B68134A43F40013FA
:100080001360124B3B603A6813886FF34D33138053
:100090003B681B68C3F34033DBB283F00103D9B282
:1000A0003A68138861F34D33138000237B6002E0CC
:1000B0007B6801337B607B6841F287329342F7DDD6
:1000C000E6E700BF18100240040801400C08014098
:1000D00080B500AF00F002F800BF80BD80B586B0EB
:1000E00000AF1C4A1C4BD31ABB601C4A1C4BD31AD2
:1000F0007B601C4B7B61184B3B610023FB730DE065
:100100007B691B78DAB23B691A703B6901333B614A
:100110007B6901337B61FB7B0133FB73FB7BBA683B
:100120009A42EDD80E4B3B610023FB7308E03B691C
:1001300000221A703B6901333B61FB7B0133FB7387
:10014000FB7B7A689A42F2D8FFF786FF00BF183728
:10015000BD4680BD0C000020000000200C000020E7
:080160000C00002068010008FA
:0C01680001000000020000000300000085
:0400000508000000EF
:00000001FF
