:020000040800F2
:100000000C1000200D01000801010008010100088A
:1000100001010008010100080101000801010008B8
:1000200001010008010100080101000801010008A8
:100030000101000801010008010100080101000898
:100040000101000801010008010100080101000888
:10005000010100080101000880B483B000AF41F243
:100060001803C4F2020341F21802C4F20202126839
:1000700042F004021A6040F60403C4F2010340F6A1
:100080000402C4F20102126822F470021A6040F6FF
:100090000403C4F2010340F60402C4F20102126830
:1000A00042F400121A6040F60C03C4F201033B60F4
:1000B0003B681A8822F400521A803B681B68C3F31D
:1000C0004033DBB283F00103DBB203F00103DAB2A9
:1000D0003B6802F001024FEA4232198821F40051D4
:1000E0000A431A804FF000037B6003E07B6803F152
:1000F00001037B607A6841F287339A42F6DDDCE7E0
:1001000080B500AF00F002F880BD00BF80B586B0BA
:1001100000AF40F20C02C2F2000240F20003C2F251
:100120000003D31ABB6040F20C02C2F2000240F29C
:100130000C03C2F20003D31A7B6040F2C013C0F676
:1001400000037B6140F20003C2F200033B614FF009
:100150000003FB7310E07B691B78DAB23B691A700D
:100160003B6903F101033B617B6903F101037B619F
:10017000FB7B03F10103FB73FA7BBB689A42EAD372
:1001800040F20C03C2F200033B614FF00003FB732B
:100190000BE03B694FF000021A703B6903F1010369
:1001A0003B61FB7B03F10103FB73FA7B7B689A42A3
:1001B000EFD3FFF751FF07F11807BD4680BD00BF21
:0C01C0000100000002000000030000002D
:0400000508000000EF
:00000001FF
