:1000000000040020E9000000DD000000DD00000029
:10001000DD000000DD000000DD000000DD0000006C
:10002000DD000000DD000000DD000000DD0000005C
:10003000DD000000DD000000DD000000DD0000004C
:10004000DD000000DD000000DD000000DD0000003C
:10005000DD000000DD00000080B483B000AF1A4B6B
:1000600020221A6000237B6002E07B6801337B6002
:100070007B68B3F5C87FF8D3144B1B68134A43F071
:100080000803136000237B6002E07B6801337B6020
:100090007B68B3F5C87FF8D30D4B1B680C4A43F05F
:1000A000080313600B4B1B680A4A83F008031360B4
:1000B00000237B6002E07B6801337B607B68064A3B
:1000C0009342F8D9EEE700BF08E10F400054024028
:1000D0001C550240FC5302403F0D030080B500AFA9
:1000E00000F002F800BF80BD80B586B000AF1C4AAA
:1000F0001C4BD31ABB601C4A1C4BD31A7B601C4B95
:100100007B61184B3B610023FB730DE07B691B781F
:10011000DAB23B691A703B6901333B617B69013399
:100120007B61FB7B0133FB73FB7BBA689A42EDD8A2
:100130000E4B3B610023FB7308E03B6900221A7001
:100140003B6901333B61FB7B0133FB73FB7B7A68CB
:100150009A42F2D8FFF780FF00BF1837BD4680BD36
:10016000000000200000002000000020000000200F
:040170007401000016
:00000001FF
