:020000040800F2
:1000000000280020451000089510000895100008F1
:1000100095100008951000089510000800000000D9
:100020000000000000000000000000009510000823
:1000300095100008000000009510000895100008B9
:1000400095100008951000089510000895100008FC
:10005000951000089510000871010008950100082E
:10006000B9010008DD010008010200089510000830
:1000700095100008951000089510000895100008CC
:1000800095100008951000089510000895100008BC
:10009000951000089510000895100008250200082A
:1000A000B909000871090008DD0900089509000870
:1000B000950500087506000845070008951000081A
:1000C000951000089510000895100008D908000840
:1000D00095100008590E00086D0E0008810E0008EA
:1000E000CD020008951000080000000095100008DF
:1000F000951000089510000895100008951000084C
:10010000951000089510000895100008951000083B
:10011000951000089510000895100008951000082B
:10012000951000089510000895100008951000081B
:1001300010B5054C237833B9044B13B10448AFF321
:1001400000800123237010BD180000200000000073
:10015000E010000808B5034B1BB103490348AFF397
:10016000008008BD000000001C000020E010000816
:1001700080B500AF054B1B689847054B5B69044A87
:1001800043F00103536100BF80BD00BF3400002075
:100190000004014080B500AF054B5B689847054BF4
:1001A0005B69044A43F00203536100BF80BD00BF96
:1001B000340000200004014080B500AF054B9B686F
:1001C0009847054B5B69044A43F00403536100BF41
:1001D00080BD00BF340000200004014080B500AFA6
:1001E000054BDB689847054B5B69044A43F00803FD
:1001F000536100BF80BD00BF3400002000040140F7
:1002000080B500AF054B1B699847054B5B69044AF5
:1002100043F01003536100BF80BD00BF34000020D5
:100220000004014080B500AF264B5B6903F020035A
:10023000002B08D0234B5B69224A43F02003536113
:10024000214B5B6998471F4B5B6903F04003002B10
:1002500008D01C4B5B691B4A43F0400353611A4BA7
:100260009B699847174B5B6903F08003002B08D00C
:10027000144B5B69134A43F080035361124BDB69F3
:100280009847104B5B6903F48073002B08D00D4B2B
:100290005B690C4A43F4807353610B4B1B6A9847AC
:1002A000084B5B6903F40073002B08D0054B5B69B6
:1002B000044A43F400735361034B5B6A984700BFE1
:1002C00080BD00BF000401403400002080B500AFB5
:1002D0002D4B5B6903F48063002B08D02A4B5B69CC
:1002E000294A43F480635361284B9B6A9847264B05
:1002F0005B6903F40063002B08D0234B5B69224A3F
:1003000043F400635361214BDB6A98471E4B5B69E2
:1003100003F48053002B08D01B4B5B691A4A43F44B
:1003200080535361194B1B6B9847174B5B6903F460
:100330000053002B08D0144B5B69134A43F400535D
:100340005361124B5B6B98470F4B5B6903F480431F
:10035000002B08D00C4B5B690B4A43F4804353617C
:100360000A4B9B6B9847084B5B6903F40043002BD7
:1003700008D0054B5B69044A43F400435361034BC7
:10038000DB6B984700BF80BD0004014034000020B3
:1003900080B485B000AF0346FB80FB88072B03D8F1
:1003A000FB889B009BB204E0FB88083B9BB29B0050
:1003B0009BB2FB81FB8918461437BD4680BC704751
:1003C00090B585B000AF786039607B686B4A934226
:1003D00006D16B4B9B696A4A43F0040393612AE0A0
:1003E0007B68684A934206D1654B9B69644A43F037
:1003F000080393611FE07B68634A934206D1604B18
:100400009B695F4A43F01003936114E07B685F4A85
:10041000934206D15A4B9B69594A43F0200393619A
:1004200009E07B685A4A934205D1554B9B69544A6F
:1004300043F0400393613B681B889BB2072B01D8B4
:100440007B6801E07B680433FB603B681B889BB2E0
:100450001846FFF79DFF03461A460F239340DA43E1
:10046000FB681B681A40FB681A603B689B78DBB22C
:10047000002B0ED03B689B78DBB2012B09D03B6888
:100480009B78DBB2022B04D03B689B78DBB2032B5A
:1004900056D13B689B78DBB2032B1CD13B681B8891
:1004A0009BB21846FFF774FF03461A46082303FA67
:1004B00002F2FB681B681A43FB681A603B681B88E2
:1004C0009BB21A4601239340DA437B68DB681A40EB
:1004D0007B68DA604DE03B689B78DBB2022B1CD175
:1004E0003B681B889BB21846FFF752FF03461A462B
:1004F000082303FA02F2FB681B681A43FB681A60C0
:100500003B681B889BB21A46012303FA02F27B6800
:10051000DB681A437B68DA602BE03B689B78DBB2D0
:100520009C003B681B889BB21846FFF731FF0346CF
:1005300004FA03F2FB681B681A43FB681A6018E0B0
:100540003B689B78DBB2043B9B003A68D278D2B21E
:1005500043EA02043B681B889BB21846FFF718FF6A
:10056000034604FA03F2FB681B681A43FB681A602F
:1005700000BF00BF1437BD4690BD00BF000801405A
:1005800000100240000C0140001001400014014026
:100590000018014080B582B000AF4FF080431B6966
:1005A000C3F30003DBB2002B0BD07A68137843F05F
:1005B000010313704FF0804213696FF3000313615E
:1005C0004EE04FF080431B69C3F34003DBB2002BC6
:1005D0000BD07A68137843F0020313704FF0804217
:1005E00013696FF3410313613AE04FF080431B69D5
:1005F000C3F38003DBB2002B0BD07A68137843F08F
:10060000040313704FF0804213696FF38203136188
:1006100026E04FF080431B69C3F3C003DBB2002B1D
:100620000BD07A68137843F0080313704FF08042C0
:1006300013696FF3C303136112E04FF080431B692A
:10064000C3F30013DBB2002B0AD07A68137843F0AF
:10065000100313704FF0804213696FF3041313619A
:10066000034BDB687868984700BF0837BD4680BDFC
:100670007000002080B582B000AF304B1B69C3F31F
:100680000003DBB2002B0AD07A68137843F0010331
:1006900013702A4A13696FF30003136146E0274B76
:1006A0001B69C3F34003DBB2002B0AD07A681378CE
:1006B00043F002031370214A13696FF3410313617E
:1006C00034E01E4B1B69C3F38003DBB2002B0AD05E
:1006D0007A68137843F004031370184A13696FF3B0
:1006E0008203136122E0154B1B69C3F3C003DBB225
:1006F000002B0AD07A68137843F0080313700F4A6E
:1007000013696FF3C303136110E00C4B1B69C3F350
:100710000013DBB2002B09D07A68137843F0100382
:100720001370064A13696FF304131361044BDB69FA
:100730007868984700BF0837BD4680BD0004004078
:100740007000002080B582B000AF334B1B69C3F34B
:100750000003DBB2002B0AD07A68137843F0010360
:1007600013702D4A13696FF3000313614BE02A4B9A
:100770001B69C3F34003DBB2002B0AD07A681378FD
:1007800043F002031370244A13696FF341031361AA
:1007900039E0214B1B69C3F38003DBB2002B0FD080
:1007A0007A68137843F0040313701B4A13696FF3DC
:1007B000820313617A68137843F00103137022E017
:1007C000154B1B69C3F3C003DBB2002B0AD07A6858
:1007D000137843F0080313700F4A13696FF3C303D0
:1007E000136110E00C4B1B69C3F30013DBB2002B49
:1007F00009D07A68137843F010031370064A13691E
:100800006FF304131361054BDB6A7868984700BFE8
:100810000837BD4680BD00BF0008004070000020C2
:1008200080B400AF0B4B5B689B0803F00303022B03
:100830000AD0022B0AD8002B02D0012B02D005E0EF
:10084000054B03E0054B01E0044BFFE71846BD46AE
:1008500080BC70470010024000127A000024F400AF
:1008600080B500AFFFF7DCFF0246054B5B681B0954
:1008700003F00F030349CB5C22FA03F3184680BD53
:10088000001002400000002080B500AFFFF7E8FF35
:100890000246054B5B681B0A03F007030349CB5C68
:1008A00022FA03F3184680BD001002400000002029
:1008B00080B500AFFFF7D4FF0246054B5B68DB0A4B
:1008C00003F007030349CB5C22FA03F3184680BD0B
:1008D000001002400000002080B582B000AF3B1D38
:1008E0000549184600F00CF8044BDB683879984746
:1008F00000BF0837BD4680BD00300140A000002089
:1009000080B483B000AF786039603B689B68C3F304
:100910000003DBB2002B0FD07A6813786FF300036B
:1009200013707A68137843F0020313703A681379EE
:100930006FF38613137115E03B689B68C3F34003A4
:10094000DBB2002B0ED07A68137843F001031370EA
:100950007A6813786FF3410313703A6813796FF371
:10096000C713137100BF0C37BD4680BC7047000031
:1009700080B500AF054BDB689847054B1A681369D3
:100980006FF30003136100BF80BD00BFC0000020F3
:10099000D000002080B500AF054BDB689847054BC1
:1009A0001A6813696FF34103136100BF80BD00BF74
:1009B000C0000020D000002080B500AF054BDB68F0
:1009C0009847054B1A6813696FF30003136100BF62
:1009D00080BD00BFC0000020D000002080B500AF67
:1009E000054BDB689847054B1A6813696FF30003E2
:1009F000136100BF80BD00BFC0000020D0000020F8
:100A0000B0B582B000AF786039607B688D4A9342A0
:100A10000CD18D4A3B6814460FCB84E80F008B4BFA
:100A20009B698A4A43F48043936124E07B68884A47
:100A300093420ED1844B3A6803F1100413460FCB56
:100A400084E80F00814BDB69804A43F40033D361B3
:100A500011E07B687F4A93420DD17B4B3A6803F1EA
:100A6000200413460FCB84E80F00784BDB69774AEC
:100A700043F48023D3617B68DB6843F400527B68D6
:100A8000DA607B68DB683A68127912031A437B6884
:100A9000DA607B681B693A68D27912031A437B6873
:100AA0001A613B685B7A002B0BD17B68DB6843F0F3
:100AB00008027B68DA607B68DB6843F004027B68CD
:100AC000DA603B681B7A032B26D801A252F823F088
:100AD000E10A0008EF0A0008FD0A00080B0B0008F5
:100AE0007B685B6923F440727B685A6114E07B6821
:100AF0005B6943F480727B685A610DE07B685B69D7
:100B000043F400727B685A6106E07B685B6943F4DA
:100B100040727B685A6100BF7B68DB683A68527933
:100B200052021A437B68DA603B689B79012B25D11E
:100B30007B68444A934206D1474B1B68464A43F0C0
:100B40002003136014E07B68414A934206D1424B74
:100B50001B68414A43F04003136009E07B683D4A4B
:100B6000934205D13C4B1B683B4A43F08003136022
:100B70007B68DB6843F020027B68DA607B68314A7F
:100B800093422DD1FFF794FE02463B681B681B0180
:100B9000B2FBF3F31C01FFF78BFE024613469B00EA
:100BA00013449A001A443B681B689B00B2FBF3F5A0
:100BB000FFF77EFE02463B681B681B01B2FBF3F3A6
:100BC000642202FB03F3EB1A1B01244AA2FB03235A
:100BD0005B0903F00F0344EA03027B689A6070E04C
:100BE0007B681B4A93423BD1FFF74EFE02463B68AF
:100BF0001B681B01B2FBF3F31C01FFF745FE024625
:100C000013469B0013449A001A443B681B689B00E0
:100C1000B2FBF3F5FFF738FE02463B681B681B0189
:100C2000B2FBF3F3642202FB03F3EB1A1B010B4A42
:100C3000A2FB03235B0903F00F0344EA03027B6872
:100C40009A603EE000380140D400002000100240CD
:100C5000004400400048004004E100E01F85EB51E3
:100C60007B681B4A93422CD1FFF70EFE02463B687D
:100C70001B681B01B2FBF3F31C01FFF705FE0246E4
:100C800013469B0013449A001A443B681B689B0060
:100C9000B2FBF3F5FFF7F8FD02463B681B681B014A
:100CA000B2FBF3F3642202FB03F3EB1A1B01094AC4
:100CB000A2FB03235B0903F00F0344EA03027B68F2
:100CC0009A60786800F052F800BF0837BD46B0BDA2
:100CD000004800401F85EB5180B485B000AF7860BC
:100CE0000023FB607B681B4A934202D11A4BFB60D6
:100CF0000CE07B68194A934202D1194BFB6005E076
:100D00007B68184A934201D1174BFB60FB689B79C3
:100D1000002B07D100BF7B681B6803F02003002B6A
:100D2000F9D002E0FB689B79012BFB685B79002B13
:100D300004D17B685B68DBB29BB206E07B685B68D2
:100D4000DBB29BB203F07F039BB218461437BD465B
:100D500080BC704700380140D400002000440040AF
:100D6000E400002000480040F400002080B588B076
:100D700000AF78602C4B1B68FB617B682B4A934269
:100D800015D12B4B9B692A4A43F00403936107F169
:100D90001C0319462748FFF713FB274B1B68FB6111
:100DA00007F11C0319462348FFF70AFB38E07B686C
:100DB000224A934218D11E4B9B691D4A43F00403FB
:100DC00093611F4B1B68FB6107F11C03194619480F
:100DD000FFF7F6FA1B4B1B68FB6107F11C03194672
:100DE0001448FFF7EDFA1BE07B68174A934217D1CE
:100DF0000F4B9B690E4A43F008039361134B1B682A
:100E0000FB6107F11C0319461148FFF7D9FA114B92
:100E10001B68FB6107F11C0319460D48FFF7D0FA68
:100E200000BF2037BD4680BDF810000800380140E3
:100E30000010024000080140FC100008004400407F
:100E400000110008041100080048004008110008C3
:100E5000000C01400C11000880B500AF024BDB68AC
:100E6000984700BF80BD00BFD400002080B500AF10
:100E7000024BDB69984700BF80BD00BFD400002053
:100E800080B500AF024BDB6A984700BF80BD00BF52
:100E9000D400002080B500AF574B1B6803F020033F
:100EA000002B06D05448FFF717FF0346DAB2534B26
:100EB0001A70524B1B78233B0A2B29D801A252F8F7
:100EC00023F000BFF10E0008110F0008110F0008F9
:100ED000110F0008110F0008110F0008110F000872
:100EE000F90E0008090F0008110F0008010F000893
:100EF000434B01221A700BE0424B01221A7007E0AB
:100F0000414B01221A7003E0404B01221A7000BFCE
:100F10003B4B1B78002B34D03A4B1B78002B0CD169
:100F20003B4B1B881B021AB2344B1B781BB213437A
:100F30001BB29AB2364B1A805BE0354B1A8840F6EA
:100F40000F7313409AB2324B1A80314B1B881B111E
:100F50005BB223F00F035AB22D4B1B885BB203F038
:100F60000F035BB213435BB2DAB22A4B1A70284B01
:100F700000221A80234B00221A70214B00221A7083
:100F800037E0214B1B78002B33D0204B1B78002BF4
:100F90000CD1214B1B881B021AB2184B1B781BB2B9
:100FA00013431BB29AB21C4B1A8022E01A4B1A88C8
:100FB00040F60F7313409AB2174B1A80164B1B88DA
:100FC0001B115BB223F00F035AB2134B1B885BB2A9
:100FD00003F00F035BB213435BB2DAB20F4B1A702C
:100FE0000D4B00221A80084B00221A70074B00227A
:100FF0001A7000BF80BD00BF00380140070100200B
:101000001100002012000020130000201400002016
:101010000401002006010020080100200A01002030
:1010200090B585B000AF054B3C460FCB84E80F0070
:101030003B4619460248FFF7E3FCFEE710110008A3
:10104000003801400D488546AFF300800C480D493B
:101050000D4A002302E0D458C4500433C4188C4213
:10106000F9D30A4A0A4C002301E013600432A24279
:10107000FBD300F011F8FFF7D3FFFEE700280020B4
:10108000000000201800002028110008180000208F
:101090000C010020FEE7000070B500260C4D0D4C41
:1010A000641BA410A64209D100F01AF800260A4DCC
:1010B0000A4C641BA410A64205D170BD55F8043B30
:1010C00098470136EEE755F8043B98470136F2E7BA
:1010D0002011000820110008201100082411000828
:1010E000F8B500BFF8BC08BC9E467047F8B500BF15
:0810F000F8BC08BC9E467047E5
:1010F800090006020A0001000200060203000100BE
:101108000A0006020B00010000C2010000000100F5
:0811180000000000950E000824
:04112000550100086D
:04112400310100088D
:101128000000000000000000010203040506070893
:0811380009232A2D2B00000001
:04000005080010459A
:00000001FF
