:020000040800F2
:1000000000280020451700089517000895170008DC
:1000100095170008951700089517000800000000C4
:10002000000000000000000000000000951700081C
:1000300095170008000000009517000895170008A4
:1000400095170008951700089517000895170008E0
:100050009517000895170008710100089501000820
:10006000B9010008DD010008010200089517000829
:1000700095170008951700089517000895170008B0
:1000800095170008951700089517000895170008A0
:100090009517000895170008951700082502000815
:1000A000DD1000089510000801110008B9100008C3
:1000B000010C0008E10C0008B10D000895170008BC
:1000C000951700089517000895170008F90F000804
:1000D00095170008F5150008091600081D160008F8
:1000E000CD020008951700080000000095170008D1
:1000F0009517000895170008951700089517000830
:10010000951700089517000895170008951700081F
:10011000951700089517000895170008951700080F
:1001200095170008951700089517000895170008FF
:1001300010B5054C237833B9044B13B10448AFF321
:1001400000800123237010BD140000200000000077
:10015000E017000808B5034B1BB103490348AFF390
:10016000008008BD0000000018000020E017000813
:1001700080B500AF054B1B689847054B5B69044A87
:1001800043F00103536100BF80BD00BF5800002051
:100190000004014080B500AF054B5B689847054BF4
:1001A0005B69044A43F00203536100BF80BD00BF96
:1001B000580000200004014080B500AF054B9B684B
:1001C0009847054B5B69044A43F00403536100BF41
:1001D00080BD00BF580000200004014080B500AF82
:1001E000054BDB689847054B5B69044A43F00803FD
:1001F000536100BF80BD00BF5800002000040140D3
:1002000080B500AF054B1B699847054B5B69044AF5
:1002100043F01003536100BF80BD00BF58000020B1
:100220000004014080B500AF264B5B6903F020035A
:10023000002B08D0234B5B69224A43F02003536113
:10024000214B5B6998471F4B5B6903F04003002B10
:1002500008D01C4B5B691B4A43F0400353611A4BA7
:100260009B699847174B5B6903F08003002B08D00C
:10027000144B5B69134A43F080035361124BDB69F3
:100280009847104B5B6903F48073002B08D00D4B2B
:100290005B690C4A43F4807353610B4B1B6A9847AC
:1002A000084B5B6903F40073002B08D0054B5B69B6
:1002B000044A43F400735361034B5B6A984700BFE1
:1002C00080BD00BF000401405800002080B500AF91
:1002D0002D4B5B6903F48063002B08D02A4B5B69CC
:1002E000294A43F480635361284B9B6A9847264B05
:1002F0005B6903F40063002B08D0234B5B69224A3F
:1003000043F400635361214BDB6A98471E4B5B69E2
:1003100003F48053002B08D01B4B5B691A4A43F44B
:1003200080535361194B1B6B9847174B5B6903F460
:100330000053002B08D0144B5B69134A43F400535D
:100340005361124B5B6B98470F4B5B6903F480431F
:10035000002B08D00C4B5B690B4A43F4804353617C
:100360000A4B9B6B9847084B5B6903F40043002BD7
:1003700008D0054B5B69044A43F400435361034BC7
:10038000DB6B984700BF80BD00040140580000208F
:1003900080B485B000AF0346FB80FB88072B03D8F1
:1003A000FB889B009BB206E0FB8803F57F53383344
:1003B0009BB29B009BB2FB81FB8918461437BD465C
:1003C00080BC704790B585B000AF786039607B68BD
:1003D0006A4A934206D16A4B9B69694A43F0040317
:1003E00093612AE07B68674A934206D1644B9B691C
:1003F000634A43F0080393611FE07B68624A9342BB
:1004000006D15F4B9B695E4A43F01003936114E091
:100410007B685E4A934206D1594B9B69584A43F028
:100420002003936109E07B68594A934205D1544BFC
:100430009B69534A43F0400393613B681B889BB21E
:10044000072B01D87B6801E07B680433FB603B68C5
:100450001B889BB21846FFF79BFF03461A460F23E3
:100460009340DA43FB681B681A40FB681A603B68DC
:100470009B78DBB2002B0ED03B689B78DBB2012B64
:1004800009D03B689B78DBB2022B04D03B689B7899
:10049000DBB2032B56D13B689B78DBB2032B1CD11C
:1004A0003B681B889BB21846FFF772FF03461A464B
:1004B000082303FA02F2FB681B681A43FB681A6000
:1004C0003B681B889BB21A4601239340DA437B6842
:1004D000DB681A407B68DA604CE03B689B78DBB2F3
:1004E000022B1CD13B681B889BB21846FFF750FFBC
:1004F00003461A46082303FA02F2FB681B681A43F4
:10050000FB681A603B681B889BB21A46012303FAFA
:1005100002F27B68DB681A437B68DA602AE03B689A
:100520009B78DBB29C003B681B889BB21846FFF7A8
:100530002FFF034604FA03F2FB681B681A43FB68AB
:100540001A6017E03B689B78DBB2043B9B003A687B
:10055000D278D2B243EA02043B681B889BB21846A9
:10056000FFF716FF034604FA03F2FB681B681A4301
:10057000FB681A6000BF1437BD4690BD00080140FB
:1005800000100240000C0140001001400014014026
:100590000018014080B400AFFEE7000080B584B0D1
:1005A00000AF78600B46FB701346BB707B68B3F1FD
:1005B000804F40F08480FB78012B05D0022B3FD088
:1005C000002B00F0AB81B0E1BB78013B032B33D8AB
:1005D00001A252F823F000BFE9050008FD0500085C
:1005E0001106000825060008AF4B1B68FB6007F1E9
:1005F0000C031946AD48FFF7E5FE20E0AC4B1B6845
:10060000FB6007F10C031946A848FFF7DBFE16E074
:10061000A84B1B68FB6007F10C031946A348FFF7C2
:10062000D1FE0CE0A44B1B68FB6007F10C031946DC
:100630009E48FFF7C7FE02E000F029FD75E174E176
:10064000BB78013B032B36D801A252F823F000BF40
:10065000610600087B0600088F060008A306000854
:100660000023BB810123BB730023FB7307F10C0341
:1006700019468E48FFF7A6FE20E0904B1B68FB60F2
:1006800007F10C0319468948FFF79CFE16E08C4BD6
:100690001B68FB6007F10C0319468448FFF792FEC4
:1006A0000CE0884B1B68FB6007F10C0319467F4880
:1006B000FFF788FE02E000F0EAFC36E135E17B68F6
:1006C000814A934240F08380FB78012B05D0022BB6
:1006D0003ED0002B00F0248127E1BB78013B032BA7
:1006E00032D801A252F823F0F90600080D070008DD
:1006F0002107000835070008744B1B68FB6007F1F1
:100700000C0319466948FFF75DFE20E0704B1B683B
:10071000FB6007F10C0319466448FFF753FE16E02F
:10072000614B1B68FB6007F10C0319466948FFF732
:1007300049FE0CE05E4B1B68FB6007F10C03194699
:100740006448FFF73FFE02E000F0A1FCEDE0ECE0C2
:10075000BB78013B032B36D801A252F823F000BF2F
:10076000710700088507000899070008B30700080B
:10077000594B1B68FB6007F10C0319464B48FFF708
:1007800021FE23E0554B1B68FB6007F10C03194663
:100790004648FFF717FE19E00023BB810123BB7316
:1007A0000023FB7307F10C0319464A48FFF70AFEC2
:1007B0000CE0424B1B68FB6007F10C0319464548EF
:1007C000FFF700FE02E000F062FCAEE0ADE07B6807
:1007D000434A934240F0A680FB78012B05D0022BC0
:1007E0003ED0002B00F0A0809FE0BB78013B032BA4
:1007F00032D801A252F823F0090800081D080008A9
:100800003108000845080008304B1B68FB6007F101
:100810000C0319462F48FFF7D5FD20E02C4B1B6831
:10082000FB6007F10C0319462A48FFF7CBFD16E0E1
:100830002C4B1B68FB6007F10C0319462548FFF79A
:10084000C1FD0CE0284B1B68FB6007F10C03194647
:100850002048FFF7B7FD02E000F019FC65E064E016
:10086000BB78013B032B55D801A252F823F000BFFF
:100870008108000895080008ED0800080109000833
:10088000154B1B68FB6007F10C0319461148FFF775
:1008900099FD42E0114B1B68FB6007F10C03194600
:1008A0000C48FFF78FFD38E0F817000800080140FA
:1008B000FC170008001800080418000808180008B1
:1008C0000C18000810180008000400401418000854
:1008D00018180008000C01401C1800082018000817
:1008E000000800402418000828180008114B1B6855
:1008F000FB6007F10C0319460F48FFF763FD0CE09E
:100900000E4B1B68FB6007F10C0319460A48FFF702
:1009100059FD02E000F0BBFB07E006E000BF04E089
:1009200000BF02E000BF00E000BF00BF1037BD46BF
:1009300080BD00BF2C180008000C014030180008D2
:1009400090B585B000AFF860B9607A60BB685B7A3B
:10095000002B40F0BD80F86800F0CCF85F4AFB68DF
:100960001360FB68B3F1804F0CD15D4BDB695C4ACF
:1009700043F00103D3615B4ABB6814460FCB84E8A4
:100980000F0024E0FB68584A93420ED1544BDB69B8
:10099000534A43F00203D361524BBA6803F1100487
:1009A00013460FCB84E80F0011E0FB684F4A9342D7
:1009B0000DD14B4BDB694A4A43F00403D361494BE9
:1009C000BA6803F1200413460FCB84E80F00BB681C
:1009D0001B881A46FB689A62BB685B881A46FB68EC
:1009E000DA62BB689B881A46FB681A63BB689B88FF
:1009F000002B04D0FA68136843F0800313607B680F
:100A00001B78012B0ED0022B17D0002B1BD1FA68BC
:100A100013686FF346131360FA6813686FF30413D7
:100A2000136013E0FA6813686FF346131360FA68F3
:100A3000136843F01003136008E0FA68136843F08A
:100A40006003136002E0FFF7A5FD00BF0022002154
:100A5000F868FFF7A3FDFA68136843F00103136019
:100A6000BB681B7A002B25D1FA68D36843F00103D9
:100A7000D360FB68B3F1804F06D11D4B1B681C4A45
:100A800043F08053136025E0FB68174A934206D178
:100A9000174B1B68164A43F0005313601AE0FB68BB
:100AA000124A934216D1124B1B68114A43F08043FD
:100AB00013600FE000BFFB681B69C3F30003DBB2E8
:100AC000002BF8D0FA6813696FF30003136101E09B
:100AD000FFF760FD00BF1437BD4690BDCC0000207D
:100AE0000010024094000020000400400008004074
:100AF00000E100E080B483B000AF78607B68B3F1C0
:100B0000804F06D13B4BDB693A4A43F00103D36186
:100B100014E07B68384A934206D1364BDB69354A8C
:100B200043F00203D36109E07B68344A934205D164
:100B3000304BDB692F4A43F00403D3617B6800220A
:100B40001A607B680022DA627B6800221A627B6886
:100B500000229A617B680022DA617B6800225A6376
:100B60007B6800229A637B680022DA637B6800223C
:100B70001A647B6800225A627B6800225A607B6894
:100B800000229A627B68B3F1804F0CD1194B1B692C
:100B9000184A43F001031361164B1B69154A23F0F1
:100BA0000103136120E07B68134A93420CD1114B7F
:100BB0001B69104A43F0020313610E4B1B690D4A77
:100BC00023F0020313610FE07B680C4A93420BD1C0
:100BD000084B1B69074A43F004031361054B1B696B
:100BE000044A23F00403136100BF0C37BD4680BCE8
:100BF000704700BF001002400004004000080040A1
:100C000080B582B000AF4FF080431B69C3F300038F
:100C1000DBB2002B0BD07A68137843F0010313701A
:100C20004FF0804213696FF3000313614EE04FF001
:100C300080431B69C3F34003DBB2002B0BD07A68FF
:100C4000137843F0020313704FF0804213696FF37F
:100C5000410313613AE04FF080431B69C3F3800303
:100C6000DBB2002B0BD07A68137843F004031370C7
:100C70004FF0804213696FF38203136126E04FF057
:100C800080431B69C3F3C003DBB2002B0BD07A682F
:100C9000137843F0080313704FF0804213696FF329
:100CA000C303136112E04FF080431B69C3F30013C9
:100CB000DBB2002B0AD07A68137843F0100313706C
:100CC0004FF0804213696FF304131361034BDB6829
:100CD0007868984700BF0837BD4680BD9400002063
:100CE00080B582B000AF304B1B69C3F30003DBB2A9
:100CF000002B0AD07A68137843F0010313702A4A54
:100D000013696FF30003136146E0274B1B69C3F3BC
:100D10004003DBB2002B0AD07A68137843F0020359
:100D20001370214A13696FF34103136134E01E4BC2
:100D30001B69C3F38003DBB2002B0AD07A681378F7
:100D400043F004031370184A13696FF382031361AD
:100D500022E0154B1B69C3F3C003DBB2002B0AD0A2
:100D60007A68137843F0080313700F4A13696FF31E
:100D7000C303136110E00C4B1B69C3F30013DBB218
:100D8000002B09D07A68137843F010031370064AD9
:100D900013696FF304131361044BDB697868984798
:100DA00000BF0837BD4680BD00040040940000200D
:100DB00080B582B000AF334B1B69C3F30003DBB2D5
:100DC000002B0AD07A68137843F0010313702D4A80
:100DD00013696FF3000313614BE02A4B1B69C3F3E4
:100DE0004003DBB2002B0AD07A68137843F0020389
:100DF0001370244A13696FF34103136139E0214BE7
:100E00001B69C3F38003DBB2002B0FD07A68137821
:100E100043F0040313701B4A13696FF382031361D9
:100E20007A68137843F00103137022E0154B1B69B5
:100E3000C3F3C003DBB2002B0AD07A68137843F007
:100E4000080313700F4A13696FF3C303136110E0B3
:100E50000C4B1B69C3F30013DBB2002B09D07A687B
:100E6000137843F010031370064A13696FF30413E9
:100E70001361054BDB6A7868984700BF0837BD46A9
:100E800080BD00BF000800409400002080B588B0FD
:100E900000AF78600B467B800823FB83FB8B012B24
:100EA00002D0FB8B013BFB83FB8BBB817B88FB81EF
:100EB00000233B8200237B8201233B7500237B754B
:100EC0000023BB6100233B7207F1080207F10C030A
:100ED00019467868FFF734FD00BF2037BD4680BD56
:100EE00080B584B000AF78600B467B800023FB6048
:100EF00007E04FF47A717868FFF7C8FFFB680133A9
:100F0000FB607B88FA689A42F3D300BF1037BD4676
:100F100080BD80B584B000AF78600B467B80002335
:100F2000FB6007E04FF47A717868FFF7D9FFFB6840
:100F30000133FB607B88FA689A42F3D300BF103715
:100F4000BD4680BD80B400AF0A4B5B689B0803F0D0
:100F50000303012B06D0012B02D3022B04D005E0A2
:100F6000054B03E0054B01E0044BFFE71846BD4687
:100F700080BC70470010024000127A000024F40088
:100F800080B500AFFFF7DEFF0146054B5B681B092C
:100F900003F00F03034AD35C21FA03F3184680BD24
:100FA000001002400000002080B500AFFFF7E8FF0E
:100FB0000146054B5B681B0A03F00703034AD35C39
:100FC00021FA03F3184680BD001002400000002003
:100FD00080B500AFFFF7D4FF0146054B5B68DB0A25
:100FE00003F00703034AD35C21FA03F3184680BDDC
:100FF000001002400000002080B582B000AF3B1D11
:101000000549184600F00CF8044BDB68387998471E
:1010100000BF0837BD4680BD0030014030000020D1
:1010200080B483B000AF786039603B689B68C3F3DD
:101030000003DBB2002B0FD07A6813786FF3000344
:1010400013707A68137843F0020313703A681379C7
:101050006FF38613137115E03B689B68C3F340037D
:10106000DBB2002B0ED07A68137843F001031370C3
:101070007A6813786FF3410313703A6813796FF34A
:10108000C713137100BF0C37BD4680BC704780B4D6
:1010900000AFFEE780B500AF054BDB689847054B16
:1010A0001A6813696FF30003136100BF80BD00BFAE
:1010B000D0000020E000002080B500AF054BDB68C9
:1010C0009847054B1A6813696FF34103136100BF1A
:1010D00080BD00BFD0000020E000002080B500AF40
:1010E000054BDB689847054B1A6813696FF30003DB
:1010F000136100BF80BD00BFD0000020E0000020D1
:1011000080B500AF054BDB689847054B1A6813693B
:101110006FF30003136100BF80BD00BFD00000204B
:10112000E0000020B0B582B000AF786039607B6825
:10113000A94A93420CD1A94A3B6814460FCB84E8D4
:101140000F00A74B9B69A64A43F48043936124E0B8
:101150007B68A44A93420ED1A04B3A6803F1100475
:1011600013460FCB84E80F009D4BDB699C4A43F488
:101170000033D36111E07B689B4A93420DD1974BBA
:101180003A6803F1200413460FCB84E80F00944B18
:10119000DB69934A43F48023D3617B68DB6843F4C3
:1011A00000527B68DA607B68DB683A681279120368
:1011B0001A437B68DA607B681B693A68D27912034C
:1011C0001A437B681A613B685B7A002B0BD17B6802
:1011D000DB6843F008027B68DA607B68DB6843F019
:1011E00004027B68DA603B681B7A032B26D801A2D5
:1011F00052F823F00512000813120008211200080B
:101200002F1200087B685B6923F440727B685A6187
:1012100014E07B685B6943F480727B685A610DE07F
:101220007B685B6943F400727B685A6106E07B6807
:101230005B6943F440727B685A6100BF7B68DB687E
:101240003A68527952021A437B68DA603B689B79AC
:10125000012B25D17B68604A934206D1634B1B6802
:10126000624A43F02003136014E07B685D4A9342B6
:1012700006D15E4B1B685D4A43F04003136009E0F2
:101280007B68594A934205D1584B1B68574A43F033
:10129000800313607B68DB6843F020027B68DA60C0
:1012A0007B684D4A93422DD1FFF792FE02463B6880
:1012B0001B681B01B2FBF3F31C01FFF789FE02461A
:1012C00013469B0013449A001A443B681B689B001A
:1012D000B2FBF3F5FFF77CFE02463B681B681B017F
:1012E000B2FBF3F3642202FB03F3EB1A1B01404A47
:1012F000A2FB03235B0903F00F0344EA03027B68AC
:101300009A6062E07B68374A93422DD1FFF74CFE2A
:1013100002463B681B681B01B2FBF3F31C01FFF79D
:1013200043FE024613469B0013449A001A443B684E
:101330001B689B00B2FBF3F5FFF736FE02463B68E5
:101340001B681B01B2FBF3F3642202FB03F3EB1AED
:101350001B01274AA2FB03235B0903F00F0344EAA6
:1013600003027B689A6030E07B681F4A93422CD16D
:10137000FFF71AFE02463B681B681B01B2FBF3F342
:101380001C01FFF711FE024613469B0013449A000E
:101390001A443B681B689B00B2FBF3F5FFF704FEA1
:1013A00002463B681B681B01B2FBF3F3642202FB9D
:1013B00003F3EB1A1B010E4AA2FB03235B0903F0A4
:1013C0000F0344EA03027B689A60786800F09CF897
:1013D00000BF0837BD46B0BD00380140E400002022
:1013E00000100240004400400048004004E100E0DA
:1013F0001F85EB5180B485B000AF78600B46FB7061
:101400000023FB607B68154A934202D1144BFB60BA
:101410000CE07B68134A934202D1134BFB6005E05A
:101420007B68124A934201D1114BFB6000BF7B687D
:101430001B6803F08003002BF9D0FB681B79012B9C
:1014400003D1FA787B685A6002E0FA787B685A60C8
:1014500000BF1437BD4680BC704700BF0038014054
:10146000E400002000440040F40000200048004058
:101470000401002080B485B000AF78600023FB60D9
:101480007B681B4A934202D11A4BFB600CE07B68DD
:10149000194A934202D1194BFB6005E07B68184A58
:1014A000934201D1174BFB60FB689B79002B07D15E
:1014B00000BF7B681B6803F02003002BF9D002E01B
:1014C000FB689B79012BFB685B79002B04D17B685F
:1014D0005B68DBB29BB206E07B685B68DBB29BB209
:1014E00003F07F039BB218461437BD4680BC70479B
:1014F00000380140E400002000440040F4000020D7
:10150000004800400401002080B584B000AF78603E
:101510002C4B1B68FB607B682B4A934215D12B4BED
:101520009B692A4A43F00403936107F10C031946AF
:101530002748FEF747FF274B1B68FB6007F10C03AA
:1015400019462348FEF73EFF38E07B68224A934263
:1015500018D11E4B9B691D4A43F0040393611F4B36
:101560001B68FB6007F10C0319461948FEF72AFFB8
:101570001B4B1B68FB6007F10C0319461448FEF770
:1015800021FF1BE07B68174A934217D10F4B9B69E1
:101590000E4A43F008039361134B1B68FB6007F18D
:1015A0000C0319461148FEF70DFF114B1B68FB6039
:1015B00007F10C0319460D48FEF704FF00BF103772
:1015C000BD4680BD341800080038014000100240BC
:1015D0000008014038180008004400403C1800088A
:1015E000401800080048004044180008000C014062
:1015F0004818000880B500AF024BDB68984700BF71
:1016000080BD00BFE400002080B500AF024BDB6965
:10161000984700BF80BD00BFE400002080B500AF48
:10162000024BDB6A984700BF80BD00BFE40000208A
:1016300080B500AF234B1B6803F02003002B0DD0B7
:101640002048FFF717FF0346DAB21F4B1A701E4BF4
:101650001B7803F00F03DAB21B4B1A701B4B1B787D
:10166000012B1FD81A4B1B781B015AB2164B1B7843
:101670005BB213435BB2DAB2154B1A70144B1B7892
:101680001B09DBB25AB2124B1B781B015BB213432E
:101690005BB2DAB20F4B1A700C4B1B780133DAB223
:1016A0000A4B1A70094B1B78012B09D9074B0022F2
:1016B0001A70084B1A78084B1A70054B00221A70E2
:1016C00000BF80BD003801405000002054000020C1
:1016D00051000020530000205200002080B500AFD0
:1016E000034B1B7819460348FFF784FE00BF80BDFB
:1016F000110000200038014090B585B000AF0D4BBF
:101700003C460FCB84E80F003B4619460A48FFF7DA
:1017100009FD0A4B01221A70FFF7E0FF084B1B7806
:1017200019460548FFF766FE01214FF08040FFF79C
:10173000F0FBF1E74C1800080038014011000020D0
:10174000520000200D488546AFF300800C480D493B
:101750000D4A002302E0D458C4500433C4188C420C
:10176000F9D30A4A0A4C002301E013600432A24272
:10177000FBD300F011F8FFF7BFFFFEE700280020C1
:10178000000000201400002064180008140000204D
:1017900014010020FEE7000070B500250C4E0D4C32
:1017A000A41BA410A54209D100F01AF800250A4E86
:1017B0000A4CA41BA410A54205D170BD56F82530D3
:1017C00098470135EEE756F8253098470135F2E79E
:1017D0005C1800085C1800085C1800086018000815
:1017E000F8B500BFF8BC08BC9E467047F8B500BF0E
:0817F000F8BC08BC9E467047DE
:1017F80000000601010006010200060103000601BF
:1018080001000100020001000300010006000601BA
:101818000700060106000100070001000800060194
:10182800090006010800010009000100090006027C
:101838000A00010002000602030001000A00060275
:101848000B00010000C201000000010000000000C0
:04185800311600083D
:04185C00550100082A
:04186000310100084A
:101864000000000000000000010203040506070850
:0418740009FF000068
:040000050800174593
:00000001FF
