:020000040800F2
:1000000000280020ED1A00083D1B00083D1B0008D9
:100010003D1B00083D1B00083D1B000800000000C0
:100020000000000000000000000000003D1B000870
:100030003D1B0008000000003D1B00083D1B0008A0
:100040003D1B00083D1B00083D1B00083D1B000830
:100050003D1B00083D1B0008590500087D050008F0
:10006000A1050008C5050008E90500083D1B0008BA
:100070003D1B00083D1B00083D1B00083D1B000800
:100080003D1B00083D1B00083D1B00083D1B0008F0
:100090003D1B00083D1B00083D1B00080D06000825
:1000A000FD140008B514000821150008D914000833
:1000B00019100008F9100008C91100083D1B0008BC
:1000C0003D1B00083D1B00083D1B000819140008DB
:1000D0003D1B00081D1A0008311A0008451A0008C7
:1000E000B50600083D1B0008000000003D1B00088D
:1000F0003D1B00083D1B00083D1B00083D1B000880
:100100003D1B00083D1B00083D1B00083D1B00086F
:100110003D1B00083D1B00083D1B00083D1B00085F
:100120003D1B00083D1B00083D1B00083D1B00084F
:1001300010B5054C237833B9044B13B10448AFF321
:1001400000800123237010BD140000200000000077
:10015000881B000808B5034B1BB103490348AFF3E4
:10016000008008BD0000000018000020881B000867
:1001700080B500AF5D4B1B78002B0DD15C4801F0C2
:100180008DFB0346592B40F0AE80584B1B78013352
:10019000DAB2564B1A70A6E0544B1B78012B0DD1E6
:1001A000534801F07BFB0346592B40F09C804F4B9A
:1001B0001B780133DAB24D4B1A7094E04B4B1B782D
:1001C000022B0DD1494B1B780133DAB2474B1A7021
:1001D000474801F063FB03461A46464B1A8082E00B
:1001E000424B1B78032B14D1404B1B780133DAB2FE
:1001F0003E4B1A703E4801F051FB03461B021AB2F7
:100200003C4B1B881BB213431BB29AB2394B1A806A
:1002100069E0364B1B78042B10D1344B1B7801332B
:10022000DAB2324B1A70344B00221A80304801F097
:1002300035FB03461A46304B1A8054E02B4B1B7893
:10024000052B14D1294B1B780133DAB2274B1A70D6
:10025000274801F023FB03461B021AB2264B1B88DA
:100260001BB213431BB29AB2234B1A803BE01F4BC5
:100270001B78062B10D11D4B1B780133DAB21B4BB8
:100280001A701E4B00221A80194801F007FB034622
:100290001A461A4B1A8026E0144B1B78072B14D1F0
:1002A000124B1B780133DAB2104B1A70104801F070
:1002B000F5FA03461B021AB2104B1B881BB21343FC
:1002C0001BB29AB20D4B1A800DE0084B1B78082B1D
:1002D00009D1074801F0E2FA0346DAB2084B1A7076
:1002E000024B00221A7000BF80BD00BF3700002003
:1002F000003801403000002032000020340000208F
:100300003600002090B587B000AF03460A46FB7167
:100310001346BB718E4B07F108040FCB84E80F0026
:1003200007F1080319468B4801F00CF95A21894856
:1003300001F074FA0821874801F070FA0621854817
:1003400001F06CFA0021834801F068FAC22181486B
:1003500001F064FA01217F4801F060FA00217D4834
:1003600001F05CFA00217B4801F058FAFB79022B7E
:1003700048D0022B57DC002B02D0012B19D052E0C1
:100380005A21744801F04AFA0621724801F046FAEF
:100390000321704801F042FA64216E4801F03EFAF0
:1003A00000216C4801F03AFA00216A4801F036FA5F
:1003B00039E05A21674801F031FA0621654801F019
:1003C0002DFA0321634801F029FA0021614801F068
:1003D00025FA00215F4801F021FA00215D4801F073
:1003E0001DFA5A215B4801F019FA0421594801F01D
:1003F00015FA0421574801F011FA0021554801F07F
:100400000DFA10E05A21534801F008FA042151482E
:1004100001F004FA3B214F4801F000FA00214D4859
:1004200001F0FCF900BFBB79052B00F28D8001A221
:1004300052F823F04D04000877040008A1040008D6
:10044000CB040008F50400081F0500085A214148A4
:1004500001F0E4F905213F4801F0E0F905213D48AC
:1004600001F0DCF901213B4801F0D8F900213948BD
:1004700001F0D4F968E05A21364801F0CFF905219E
:10048000344801F0CBF90521324801F0C7F90221C7
:10049000304801F0C3F900212E4801F0BFF953E0C4
:1004A0005A212C4801F0BAF905212A4801F0B6F981
:1004B0000521284801F0B2F90621264801F0AEF9DD
:1004C0000021244801F0AAF93EE05A21214801F018
:1004D000A5F905211F4801F0A1F905211D4801F0EA
:1004E0009DF907211B4801F099F90021194801F0F5
:1004F00095F929E05A21174801F090F9052115488E
:1005000001F08CF90521134801F088F90821114800
:1005100001F084F900210F4801F080F914E05A211C
:100520000C4801F07BF905210A4801F077F9052113
:10053000084801F073F90921064801F06FF900211C
:10054000044801F06BF900BF00BF1C37BD4690BDE9
:10055000A01B00080038014080B500AF054B1B68A8
:100560009847054B5B69044A43F00103536100BFA0
:1005700080BD00BF380000200004014080B500AFFE
:10058000054B5B689847054B5B69044A43F00203DF
:10059000536100BF80BD00BF38000020000401404F
:1005A00080B500AF054B9B689847054B5B69044AD3
:1005B00043F00403536100BF80BD00BF380000203A
:1005C0000004014080B500AF054BDB689847054B40
:1005D0005B69044A43F00803536100BF80BD00BF5C
:1005E000380000200004014080B500AF054B1B69B6
:1005F0009847054B5B69044A43F01003536100BF01
:1006000080BD00BF380000200004014080B500AF6D
:10061000264B5B6903F02003002B08D0234B5B695A
:10062000224A43F020035361214B5B6998471F4BDB
:100630005B6903F04003002B08D01C4B5B691B4A2D
:1006400043F0400353611A4B9B699847174B5B6912
:1006500003F08003002B08D0144B5B69134A43F06E
:1006600080035361124BDB699847104B5B6903F4BD
:100670008073002B08D00D4B5B690C4A43F48073E8
:1006800053610B4B1B6A9847084B5B6903F400737B
:10069000002B08D0054B5B69044A43F40073536197
:1006A000034B5B6A984700BF80BD00BF0004014058
:1006B0003800002080B500AF2D4B5B6903F48063E8
:1006C000002B08D02A4B5B69294A43F480635361AD
:1006D000284B9B6A9847264B5B6903F40063002B09
:1006E00008D0234B5B69224A43F400635361214BDA
:1006F000DB6A98471E4B5B6903F48053002B08D0DC
:100700001B4B5B691A4A43F480535361194B1B6BB3
:100710009847174B5B6903F40053002B08D0144B28
:100720005B69134A43F400535361124B5B6B984768
:100730000F4B5B6903F48043002B08D00C4B5B69C3
:100740000B4A43F4804353610A4B9B6B9847084B19
:100750005B6903F40043002B08D0054B5B69044A36
:1007600043F400435361034BDB6B984700BF80BDEC
:10077000000401403800002080B485B000AF03467B
:10078000FB80FB88072B03D8FB889B009BB204E00F
:10079000FB88083B9BB29B009BB2FB81FB89184600
:1007A0001437BD4680BC704790B585B000AF786007
:1007B00039607B686B4A934206D16B4B9B696A4AEE
:1007C00043F0040393612AE07B68684A934206D1B0
:1007D000654B9B69644A43F0080393611FE07B68A3
:1007E000634A934206D1604B9B695F4A43F0100312
:1007F000936114E07B685F4A934206D15A4B9B6930
:10080000594A43F02003936109E07B685A4A9342B6
:1008100005D1554B9B69544A43F0400393613B68B3
:100820001B889BB2072B01D87B6801E07B680433EF
:10083000FB603B681B889BB21846FFF79DFF034691
:100840001A460F239340DA43FB681B681A40FB6883
:100850001A603B689B78DBB2002B0ED03B689B781C
:10086000DBB2012B09D03B689B78DBB2022B04D0B2
:100870003B689B78DBB2032B56D13B689B78DBB29D
:10088000032B1CD13B681B889BB21846FFF774FFF3
:1008900003461A46082303FA02F2FB681B681A4350
:1008A000FB681A603B681B889BB21A460123934081
:1008B000DA437B68DB681A407B68DA604DE03B68AE
:1008C0009B78DBB2022B1CD13B681B889BB218467D
:1008D000FFF752FF03461A46082303FA02F2FB68A9
:1008E0001B681A43FB681A603B681B889BB21A4658
:1008F000012303FA02F27B68DB681A437B68DA6043
:100900002BE03B689B78DBB29C003B681B889BB26A
:100910001846FFF731FF034604FA03F2FB681B6831
:100920001A43FB681A6018E03B689B78DBB2043B13
:100930009B003A68D278D2B243EA02043B681B8833
:100940009BB21846FFF718FF034604FA03F2FB6850
:100950001B681A43FB681A6000BF00BF1437BD460E
:1009600090BD00BF0008014000100240000C014093
:1009700000100140001401400018014080B400AF95
:10098000FEE7000080B59CB000AF78600B46FB70BE
:100990001346BB707B68B3F1804F40F08980FB78D1
:1009A000022B43D0022B00F3BB81002B00F0BA8155
:1009B000012B00D0B4E1BB78013B032B32D801A25C
:1009C00052F823F0D5090008E9090008FD090008DC
:1009D000110A0008B04B1B68FB6607F16C0319464F
:1009E000AE48FFF7E1FE20E0AD4B1B68FB6607F168
:1009F0006C031946A948FFF7D7FE16E0A94B1B6800
:100A0000FB6607F16C031946A448FFF7CDFE0CE026
:100A1000A54B1B68FB6607F16C0319469F48FFF75F
:100A2000C3FE02E000F043FD85E184E1BB78013BB9
:100A3000032B39D801A252F823F000BF4D0A000859
:100A40006D0A0008810A0008950A00080023A7F82B
:100A50006C30012387F86E30002387F86F3007F180
:100A60006C0319468D48FFF79FFE20E08F4B1B68F3
:100A7000FB6607F16C0319468848FFF795FE16E000
:100A80008B4B1B68FB6607F16C0319468348FFF725
:100A90008BFE0CE0874B1B68FB6607F16C03194665
:100AA0007E48FFF781FE02E000F001FD43E142E1F4
:100AB0007B68814A934240F08980FB78022B43D0C7
:100AC000022B00F33181002B00F03081012B00D08C
:100AD0002AE1BB78013B032B32D801A252F823F064
:100AE000F10A0008050B0008190B00082D0B00087F
:100AF000724B1B68FB6607F16C0319466748FFF7EA
:100B000053FE20E06E4B1B68FB6607F16C03194631
:100B10006248FFF749FE16E05F4B1B68FB6607F172
:100B20006C0319466748FFF73FFE0CE05C4B1B68FF
:100B3000FB6607F16C0319466248FFF735FE02E0D9
:100B400000F0B5FCF7E0F6E0BB78013B032B39D8A9
:100B500001A252F823F000BF690B00087D0B0008CA
:100B6000910B0008B10B0008574B1B68FB6607F19F
:100B70006C0319464948FFF717FE26E0534B1B68E4
:100B8000FB6607F16C0319464448FFF70DFE1CE0B5
:100B90000023A7F86C30012387F86E30002387F814
:100BA0006F3007F16C0319464648FFF7FDFD0CE076
:100BB0003E4B1B68FB6607F16C0319464148FFF783
:100BC000F3FD02E000F073FCB5E0B4E07B68404A5E
:100BD000934240F0B080FB78022B43D0022B00F30D
:100BE000A780002B00F0A680012B00D0A0E0BB78EE
:100BF000013B032B32D801A252F823F00D0C000860
:100C0000210C0008350C0008490C00082B4B1B6810
:100C1000FB6607F16C0319462A48FFF7C5FD20E083
:100C2000274B1B68FB6607F16C0319462548FFF745
:100C3000BBFD16E0274B1B68FB6607F16C031946EA
:100C40002048FFF7B1FD0CE0234B1B68FB6607F162
:100C50006C0319461B48FFF7A7FD02E000F027FCD4
:100C600069E068E0BB78013B032B55D801A252F83C
:100C700023F000BF850C0008DD0C0008F10C000813
:100C8000050D0008104B1B68FB6607F16C03194645
:100C90000C48FFF789FD42E0B01B00080008014046
:100CA000B41B0008B81B0008BC1B0008C01B0008D0
:100CB000C41B0008C81B000800040040CC1B00082F
:100CC000D01B0008000C0140D41B0008D81B0008F2
:100CD00000080040DC1B0008E01B0008184B1B68E4
:100CE000FB6607F16C0319461648FFF75DFD16E039
:100CF000154B1B68FB6607F16C0319461148FFF79B
:100D000053FD0CE0114B1B68FB6607F16C031946A1
:100D10000C48FFF749FD02E000F0C9FB0BE00AE0D8
:100D200000BF08E000BF06E000BF04E000BF02E033
:100D300000BF00E000BF00BF7037BD4680BD00BFF0
:100D4000D81B0008000C0140E41B0008E81B000849
:100D500090B585B000AFF860B9607A60BB685B7A27
:100D6000002B40F0C080F86800F0D0F8614AFB68C2
:100D70001360FB68B3F1804F0CD15F4BDB695E4AB7
:100D800043F00103D3615D4ABB6814460FCB84E88E
:100D90000F0024E0FB685A4A93420ED1564BDB69A0
:100DA000554A43F00203D361544BBA6803F110046F
:100DB00013460FCB84E80F0011E0FB68514A9342C1
:100DC0000DD14D4BDB694C4A43F00403D3614B4BCF
:100DD000BA6803F1200413460FCB84E80F00BB6808
:100DE0001B881A46FB689A62BB685B881A46FB68D8
:100DF000DA62BB689B881A46FB681A63BB689B88EB
:100E0000002B04D0FA68136843F0800313607B68FA
:100E10001B78022B1CD0022B20DC002B02D0012BD4
:100E20000BD01BE0FA6813686FF346131360FA687F
:100E300013686FF30413136013E0FA6813686FF319
:100E400046131360FA68136843F01003136008E058
:100E5000FA68136843F06003136002E0FFF78EFD49
:100E600000BF00220021F868FFF78CFDFA681368C4
:100E700043F001031360BB681B7A002B25D1FA688D
:100E8000D36843F00103D360FB68B3F1804F06D110
:100E90001D4B1B681C4A43F08053136025E0FB6820
:100EA000174A934206D1184B1B68174A43F0005368
:100EB00013601AE0FB68134A934216D1124B1B6869
:100EC000114A43F0804313600FE000BFFB681B69C9
:100ED000C3F30003DBB2002BF8D0FA6813696FF399
:100EE0000003136101E0FFF749FD00BF1437BD4661
:100EF00090BD00BFA400002000100240740000203C
:100F0000000400400008004000E100E080B483B02D
:100F100000AF78607B68B3F1804F06D13B4BDB6953
:100F20003A4A43F00103D36114E07B68384A9342A4
:100F300006D1364BDB69354A43F00203D36109E041
:100F40007B68344A934205D1304BDB692F4A43F02A
:100F50000403D3617B6800221A607B680022DA6296
:100F60007B6800221A627B6800229A617B680022FB
:100F7000DA617B6800225A637B6800229A637B688F
:100F80000022DA637B6800221A647B6800225A62BE
:100F90007B6800225A607B6800229A627B68B3F10A
:100FA000804F0CD1194B1B69184A43F001031361A0
:100FB000164B1B69154A23F00103136120E07B687F
:100FC000134A93420CD1114B1B69104A43F00203A0
:100FD00013610E4B1B690D4A23F0020313610FE0EE
:100FE0007B680C4A93420BD1084B1B69074A43F0BC
:100FF00004031361054B1B69044A23F004031361C6
:1010000000BF0C37BD4680BC704700BF00100240D7
:10101000000400400008004080B582B000AF4FF0EF
:1010200080431B69C3F30003DBB2002B0BD07A684B
:10103000137843F0010313704FF0804213696FF38C
:10104000000313614EE04FF080431B69C3F340037C
:10105000DBB2002B0BD07A68137843F002031370D5
:101060004FF0804213696FF3410313613AE04FF090
:1010700080431B69C3F38003DBB2002B0BD07A687B
:10108000137843F0040313704FF0804213696FF339
:101090008203136126E04FF080431B69C3F3C00352
:1010A000DBB2002B0BD07A68137843F0080313707F
:1010B0004FF0804213696FF3C303136112E04FF0E6
:1010C00080431B69C3F30013DBB2002B0AD07A689C
:1010D000137843F0100313704FF0804213696FF3DD
:1010E00004131361034BDB687868984700BF083727
:1010F000BD4680BD7400002080B582B000AF304B8B
:101100001B69C3F30003DBB2002B0AD07A681378A3
:1011100043F0010313702A4A13696FF3000313614C
:1011200046E0274B1B69C3F34003DBB2002B0AD018
:101130007A68137843F002031370214A13696FF33E
:101140004103136134E01E4B1B69C3F38003DBB220
:10115000002B0AD07A68137843F004031370184AFE
:1011600013696FF38203136122E0154B1B69C3F30C
:10117000C003DBB2002B0AD07A68137843F008036F
:1011800013700F4A13696FF3C303136110E00C4B24
:101190001B69C3F30013DBB2002B09D07A68137804
:1011A00043F010031370064A13696FF304131361BD
:1011B000044BDB697868984700BF0837BD4680BD9F
:1011C000000400407400002080B582B000AF334BB3
:1011D0001B69C3F30003DBB2002B0AD07A681378D3
:1011E00043F0010313702D4A13696FF30003136179
:1011F0004BE02A4B1B69C3F34003DBB2002B0AD040
:101200007A68137843F002031370244A13696FF36A
:101210004103136139E0214B1B69C3F38003DBB247
:10122000002B0FD07A68137843F0040313701B4A25
:1012300013696FF3820313617A68137843F0010333
:10124000137022E0154B1B69C3F3C003DBB2002B04
:101250000AD07A68137843F0080313700F4A1369B1
:101260006FF3C303136110E00C4B1B69C3F300134E
:10127000DBB2002B09D07A68137843F010031370A7
:10128000064A13696FF304131361054BDB6A786830
:10129000984700BF0837BD4680BD00BF000800402A
:1012A0007400002080B588B000AF78600B467B806A
:1012B0000823FB83FB8B012B02D0FB8B013BFB83C1
:1012C000FB8BBB817B88FB8100233B8200237B82DD
:1012D00001233B7500237B750023BB6100233B7218
:1012E00007F1080207F10C0319467868FFF730FD93
:1012F00000BF2037BD4680BD80B584B000AF7860A8
:101300000B467B800023FB6007E04FF47A7178681E
:10131000FFF7C8FFFB680133FB607B88FA689A42DD
:10132000F3D300BF00BF1037BD4680BD80B584B089
:1013300000AF78600B467B800023FB6007E04FF432
:101340007A717868FFF7D8FFFB680133FB607B8810
:10135000FA689A42F3D300BF00BF1037BD4680BD84
:1013600080B400AF0B4B5B689B0803F00303022BB8
:101370000AD0022B0AD8002B02D0012B02D005E0A4
:10138000054B03E0054B01E0044BFFE71846BD4663
:1013900080BC70470010024000127A000024F40064
:1013A00080B500AFFFF7DCFF0246054B5B681B0909
:1013B00003F00F030349CB5C22FA03F3184680BD08
:1013C000001002400000002080B500AFFFF7E8FFEA
:1013D0000246054B5B681B0A03F007030349CB5C1D
:1013E00022FA03F3184680BD0010024000000020DE
:1013F00080B500AFFFF7D4FF0246054B5B68DB0A00
:1014000003F007030349CB5C22FA03F3184680BDBF
:10141000001002400000002080B582B000AF3B1DEC
:101420000549184600F00CF8044BDB6838799847FA
:1014300000BF0837BD4680BD00300140A800002035
:1014400080B483B000AF786039603B689B68C3F3B9
:101450000003DBB2002B0FD07A6813786FF3000320
:1014600013707A68137843F0020313703A681379A3
:101470006FF38613137115E03B689B68C3F3400359
:10148000DBB2002B0ED07A68137843F0010313709F
:101490007A6813786FF3410313703A6813796FF326
:1014A000C713137100BF0C37BD4680BC704780B4B2
:1014B00000AFFEE780B500AF054BDB689847054BF2
:1014C0001A6813696FF30003136100BF80BD00BF8A
:1014D000C8000020D800002080B500AF054BDB68B5
:1014E0009847054B1A6813696FF34103136100BFF6
:1014F00080BD00BFC8000020D800002080B500AF2C
:10150000054BDB689847054B1A6813696FF30003B6
:10151000136100BF80BD00BFC8000020D8000020BC
:1015200080B500AF054BDB689847054B1A68136917
:101530006FF30003136100BF80BD00BFC80000202F
:10154000D8000020B0B582B000AF786039607B6809
:101550008D4A93420CD18D4A3B6814460FCB84E8E8
:101560000F008B4B9B698A4A43F48043936124E0CC
:101570007B68884A93420ED1844B3A6803F1100489
:1015800013460FCB84E80F00814BDB69804A43F49C
:101590000033D36111E07B687F4A93420DD17B4BCE
:1015A0003A6803F1200413460FCB84E80F00784B10
:1015B000DB69774A43F48023D3617B68DB6843F4BB
:1015C00000527B68DA607B68DB683A681279120344
:1015D0001A437B68DA607B681B693A68D279120328
:1015E0001A437B681A613B685B7A002B0BD17B68DE
:1015F000DB6843F008027B68DA607B68DB6843F0F5
:1016000004027B68DA603B681B7A032B26D801A2B0
:1016100052F823F02516000833160008411600087A
:101620004F1600087B685B6923F440727B685A613F
:1016300014E07B685B6943F480727B685A610DE05B
:101640007B685B6943F400727B685A6106E07B68E3
:101650005B6943F440727B685A6100BF7B68DB685A
:101660003A68527952021A437B68DA603B689B7988
:10167000012B25D17B68444A934206D1474B1B6816
:10168000464A43F02003136014E07B68414A9342CA
:1016900006D1424B1B68414A43F04003136009E006
:1016A0007B683D4A934205D13C4B1B683B4A43F063
:1016B000800313607B68DB6843F020027B68DA609C
:1016C0007B68314A93422DD1FFF792FE02463B6878
:1016D0001B681B01B2FBF3F31C01FFF789FE0246F6
:1016E00013469B0013449A001A443B681B689B00F6
:1016F000B2FBF3F5FFF77CFE02463B681B681B015B
:10170000B2FBF3F3642202FB03F3EB1A1B01244A3E
:10171000A2FB03235B0903F00F0344EA03027B6887
:101720009A6070E07B681B4A93423BD1FFF74CFE06
:1017300002463B681B681B01B2FBF3F31C01FFF779
:1017400043FE024613469B0013449A001A443B682A
:101750001B689B00B2FBF3F5FFF736FE02463B68C1
:101760001B681B01B2FBF3F3642202FB03F3EB1AC9
:101770001B010B4AA2FB03235B0903F00F0344EA9E
:1017800003027B689A603EE000380140DC000020E4
:1017900000100240004400400048004004E100E026
:1017A0001F85EB517B681B4A93422CD1FFF70CFE3F
:1017B00002463B681B681B01B2FBF3F31C01FFF7F9
:1017C00003FE024613469B0013449A001A443B68EA
:1017D0001B689B00B2FBF3F5FFF7F6FD02463B6882
:1017E0001B681B01B2FBF3F3642202FB03F3EB1A49
:1017F0001B01094AA2FB03235B0903F00F0344EA20
:1018000003027B689A60786800F092F800BF08379E
:10181000BD46B0BD004800401F85EB5180B485B087
:1018200000AF78600B46FB700023FB607B68154AB5
:10183000934202D1144BFB600CE07B68134A934245
:1018400002D1134BFB6005E07B68124A934201D141
:10185000114BFB6000BF7B681B6803F08003002B0B
:10186000F9D0FB681B79012B03D1FA787B685A60A9
:1018700002E0FA787B685A6000BF1437BD4680BC2E
:10188000704700BF00380140DC00002000440040E9
:10189000EC00002000480040FC00002080B485B02F
:1018A00000AF78600023FB607B681B4A934202D143
:1018B0001A4BFB600CE07B68194A934202D1194B2A
:1018C000FB6005E07B68184A934201D1174BFB602F
:1018D000FB689B79002B07D100BF7B681B6803F076
:1018E0002003002BF9D002E0FB689B79012BFB68F9
:1018F0005B79002B04D17B685B68DBB29BB206E0AE
:101900007B685B68DBB29BB203F07F039BB2184637
:101910001437BD4680BC704700380140DC00002011
:1019200000440040EC00002000480040FC00002083
:1019300080B588B000AF78602C4B1B68FB617B687A
:101940002B4A934215D12B4B9B692A4A43F004033F
:10195000936107F11C0319462748FEF725FF274B23
:101960001B68FB6107F11C0319462348FEF71CFFA7
:1019700038E07B68224A934218D11E4B9B691D4A6E
:1019800043F0040393611F4B1B68FB6107F11C03C9
:1019900019461948FEF708FF1B4B1B68FB6107F14E
:1019A0001C0319461448FEF7FFFE1BE07B68174A2C
:1019B000934217D10F4B9B690E4A43F00803936182
:1019C000134B1B68FB6107F11C0319461148FEF716
:1019D000EBFE114B1B68FB6107F11C0319460D4818
:1019E000FEF7E2FE00BF2037BD4680BDEC1B0008BD
:1019F000003801400010024000080140F01B0008C0
:101A000000440040F41B0008F81B00080048004098
:101A1000FC1B0008000C0140001C000880B500AF52
:101A2000024BDB68984700BF80BD00BFDC00002090
:101A300080B500AF024BDB69984700BF80BD00BF97
:101A4000DC00002080B500AF024BDB6A984700BF86
:101A500080BD00BFDC00002080B500AF0021002069
:101A6000FEF750FC1C4B1B88DBB219461B48FFF7E6
:101A7000D5FE194B1B881B0A9BB219461748FFF766
:101A8000CDFE174B1B88DBB219461448FFF7C6FE84
:101A9000134B1B881B0A9BB219461048FFF7BEFE6A
:101AA000104B1B88DBB219460C48FFF7B7FE0D4BF5
:101AB0001B881B0A9BB219460848FFF7AFFE0A4B6A
:101AC0001B7819460548FFF7A9FE01214FF0804019
:101AD000FFF72CFCC6E700BF3000002000380140B3
:101AE0003200002034000020360000200D488546DA
:101AF000AFF300800C480D490D4A002302E0D45892
:101B0000C4500433C4188C42F9D30A4A0A4C002347
:101B100001E013600432A242FBD300F011F8FFF79A
:101B20009BFFFEE70028002000000020140000209A
:101B30000C1C0008140000200C010020FEE700002F
:101B400070B500260C4D0D4C641BA410A64209D1A3
:101B500000F01AF800260A4D0A4C641BA410A64295
:101B600005D170BD55F8043B98470136EEE755F8AE
:101B7000043B98470136F2E7041C0008041C0008E7
:101B8000041C0008081C0008F8B500BFF8BC08BC1D
:101B90009E467047F8B500BFF8BC08BC9E4670472B
:101BA00000C20100000001000000000071010008F7
:101BB0000000060101000601020006010300060103
:101BC00001000100020001000300010006000601FF
:101BD00007000601060001000700010008000601D9
:101BE00009000601080001000900010009000602C1
:101BF0000A00010002000602030001000A000602BA
:041C00000B000100D4
:041C0400550100087E
:041C0800310100089E
:101C0C0000000000000000000102030405060708A4
:041C1C0009000000BB
:0400000508001AEDE8
:00000001FF
