:020000040800F2
:1000000000100020D7000008D7000008D700000823
:10001000D7000008D7000008D7000008D700000864
:10002000D7000008D7000008D7000008D700000854
:10003000D7000008D7000008D7000008D700000844
:10004000D7000008D7000008D7000008D700000834
:10005000D7000008D700000880B483B000AF194B68
:100060001B68184A43F004031360174B1B68164AB9
:1000700023F470031360144B1B68134A43F40013FA
:100080001360124B3B603A6813886FF34D33138053
:100090003B681B68C3F34033DBB283F00103D9B282
:1000A0003A68138861F34D33138000237B6002E0CC
:1000B0007B6801337B607B6841F287329342F7DDD6
:1000C000E6E700BF18100240040801400C08014098
:0800D000FFF7C2FFFEE7FBE7AA
:0400000508000000EF
:00000001FF
